:020000040001F9
:1080000060390020598101007381010075810100F0
:108010000000000000000000000000000000000060
:108020000000000000000000000000007781010057
:108030000000000000000000798101007B81010048
:108040007D8101007D810100AD870100A5850100D2
:108050007D81010000000000C1830100D182010088
:108060007D8101007D8101007D8101007D81010014
:108070007D8101007D8101007D8101007D81010004
:108080007D810100018501007D8101007D8101006C
:108090008D8601007D810100958601007D810100B2
:1080A0007D8101007D8101000000000000000000D2
:1080B00000000000000000000000000000000000C0
:1080C0000348854600F0D4F80048004789BA01000B
:1080D00060390020401E00BF00BF00BF00BF00BFCE
:1080E00000BF00BF00BF00BF00BF00BF00BFF1D195
:1080F00070470000056885F3088846680A4AEFF370
:1081000005839A42304602D1084CA6463047074CB8
:10811000064D0646064FF0B4034C034D024E024F87
:10812000F0B404480047000000000000FFFFFFFF1C
:1081300000000021F9FFFFFF401E00BF00BF00BF8D
:1081400000BF00BF00BF00BF00BF00BF00BF00BF37
:1081500000BFF1D1704700000321094802680A43BB
:108160000260084802680A430260074880470748DF
:108170000047FEE7FEE7FEE7FEE7FEE7FEE700005A
:1081800024050040540500402D870100C1800100F6
:1081900030B50B46014600202022012409E00D469F
:1081A000D5409D4205D31D469540491B2546954027
:1081B00040191546521E002DF1DC30BD70B500246B
:1081C0002546002801DA01244042002901DA012570
:1081D0004942FFF7DDFFAC4200D04042002C00D006
:1081E000494270BD10B5431A934209D283188818CA
:1081F00003E0401E01785B1E1970521EF9D210BDBB
:1082000003460B439B0703D009E008C9121F08C0AF
:10821000042AFAD203E00B780370401C491C521E5A
:10822000F9D210BDD2B201E00270401C491EFBD24F
:1082300070470022F6E710B513460A460446194671
:10824000FFF7F0FF204610BD421C0178401C0029BA
:10825000FBD1801A704730B504460020034600E089
:108260005B1C934203D2E05CCD5C401BF8D030BD78
:10827000064C0125064E05E0E36807CC2B430C3C79
:1082800098471034B442F7D3FFF71EFFFCD4010027
:108290001CD5010030B58C180278401C13071B0F49
:1082A00001D10378401C120906D10278401C03E07A
:1082B00005780D70401C491C5B1EF9D101E00B7064
:1082C000491C521EFBD1A142E6D3002030BD000064
:1082D0003148016800295ED010B5002101602F48A7
:1082E00080684B21C0B209014843FF21FFF750FFCE
:1082F000410040182A4980B2884201D3642036E008
:10830000284A904209D9081A3A2148436421FFF7C4
:1083100055FF6421081AC0B229E02349884209D9CF
:10832000101A18214843A021FFF748FF2A21081AF4
:10833000C0B21CE01D4A90420AD9081A0C214843D9
:10834000FF212D31FFF73AFF1221081AC0B20EE0CB
:10835000174988420AD9101A06214843FF2155318E
:10836000FFF72CFF0621081AC0B200E000200E30F3
:10837000C1B2104801F0ECF800280BD0082809D051
:108380000D49884206D00D49884203D0002211468B
:1083900000F03CFD10BD70470071004000750040CA
:1083A000B80B0000540B0000B40A0000880900005C
:1083B0003408000070260020043000000134000062
:1083C000F0B54B488BB0016900914A4A0021D16356
:1083D000089149494A78002A7ED903273F04089822
:1083E000142148434449089C4A688968821801203E
:1083F0000346A3400B426DD000218E460191D16807
:10840000CB4300994B4011680B409C460021054628
:108410008D402B4212D0D6682E4203D10124640431
:108420002E4301E03C46AE43D660344D8E007519B4
:108430002E68BE432E602E6826432E60491C2029DC
:10844000E5D32B490B69009915684B402B402FD081
:1084500059400491D168CC4304994C402C40A64625
:10846000002105468D402C4213D0D66833462E425B
:1084700003D1012676042B4301E03E46AB43D36093
:108480001E4D8B005D192B68BB432B602B6833435B
:108490002B60491C2029E4D3049B714690689943C2
:1084A00008400190184673465168184001408E46B6
:1084B000009B6046916898430140019864460143DF
:1084C0005068234018407346184303460B4301D0BD
:1084D00012699047089800E007E0401CC0B20649C6
:1084E00008904978884200D279E70BB0F0BD0000CF
:1084F0000005005040610040282100200007005086
:10850000F8B522490020086048608860C8602049AA
:10851000086048601F4E3469601C35D01E48002733
:1085200040687169401A05022D0A24204443B0684E
:1085300022185068A84214D8B3692D1AC719146AB2
:10854000002B09D0D16990699847002807D00022F4
:10855000114600F05BFC02E09169D0698847601C1D
:10856000E3D1B178F078814206D1401CC0B2F070FE
:10857000022801D10020F07000060849800D0F503C
:108580000120074900050860F8BD000040110140C6
:10859000001101404421002000150140602100200D
:1085A00000E200E034488168012963D13349496819
:1085B00049075FD5F8B500278760314C608B401CB8
:1085C0006083254620356879002810D10120687124
:1085D000618B0020226A002A09D02A4A1288120AD6
:1085E0001202024390B209040843216A88472068B6
:1085F00005231B02C01880692169C2B2A68AE08ADD
:10860000002906D0B04204D2E08A0918401CE0825A
:108610000A70A268A689E089218B88420CD2002AC0
:1086200003D0B04201D2105C00E000202268D218D2
:10863000D061E089401CE081608B884219D3207FA3
:108640000121814010488160E189A760A7812761ED
:10865000A78202202871226A0120002A09D0094A33
:108660001288120A1202024390B209040843216AD6
:108670008847F8BD704700000031004000330040DB
:10868000F8280020F8D401000005005010B504F0CF
:1086900003FC10BDF8B5244C6068002807D0804763
:1086A000002803D00022114600F0B0FBF8BD20786E
:1086B0000028FBD02069002807D00026E0680028A9
:1086C00005D00025002E04D013E00126F6E7012591
:1086D000F8E7684651DF052806D0002806D00022BA
:1086E000114600F093FB04E0012602E021690098A6
:1086F0008847002D12D1608869460880A06861DF34
:10870000052806D0002806D00022114600F07EFB86
:1087100004E0012502E0E168A0688847002ED8D077
:10872000002DCFD0F8BD0000682100201A48018C30
:10873000C9B2012917D1828C120714D1028D1206F9
:10874000130F03D1838D1B061B0F1ED0120F012A9E
:1087500003D1838D1B061B0F17D0032A03D1828DF3
:108760001206120F11D001290ED1818C09070BD1ED
:10877000018D0906090F042906D1808D0006000F1E
:1087800002D10649012088607047064A04495160B9
:10879000D113054A9161EBE7C00F00F000060040DD
:1087A000DFFF07C000050040006C0040F0B51A4C28
:1087B00083B0A068194D1A4E002700280ED07068AB
:1087C00040070BD5A760174880690422C0B2A88073
:1087D00069460A700871E96868468847E0690028B8
:1087E00006D07068000603D5E761032003F020FD82
:1087F000606A00280DD0706880050AD567620A4952
:108800000868086002216A4611700190E9686846AC
:10881000884703B0F0BD000000210040EC2000209C
:10882000002300400025004080240040002101700A
:1088300041708170C17001717047002101704170F9
:108840008170C170017141717047002101804180C8
:108850008180817170470A7802704B7843708A7802
:108860008270CA78C2700B79037170470A780270FF
:108870004B7843708A788270CA78C2700B79037122
:108880004A794271704702E008C8121F08C1002AE5
:10889000FAD170477047002001E001C1121F002A81
:1088A000FBD1704710B58AB000210191029103916C
:1088B000049141216B4619710A210C4859710478C1
:1088C0000B22991D9C71052344784C7084788C7020
:1088D000801C891C5B1EF7D1901C009005AB01A980
:1088E0000020921C04F01AF90AB010BD3C200020B0
:1088F00001491020C86070470005005010B50449B8
:10890000102088607D20C00003F0A8FB10BD00008F
:1089100000050050F8B5044617460D46881C03F0C4
:108920003DFB064620200443691E3470AA1C71706A
:10893000022A0ED9741CE9070020002901D06070BA
:10894000641C690805D06070A070491EA41C002931
:10895000F9D100923B46AA1C3146002004F0DEF813
:108960000446304602F04AFF2046F8BD00B583B009
:1089700004206946087101200246009002AB01A95B
:10898000002004F0CBF803B000BD00B583B0112087
:108990006946087101200246009002AB01A900203F
:1089A00004F0BCF803B000BD10B584B002206946E5
:1089B000087101200246009002AB01A9002004F0DA
:1089C000ADF804460A2003F049FB204604B010BD70
:1089D00010B58AB00C2904D20023019302930393AB
:1089E0000493402318436B461871481E587112D3E4
:1089F000581D521ECB0704D053786C46401CA371FF
:108A0000521C4B0807D05478447094788470801CB2
:108A1000921C5B1EF7D1881C8A1C009005AB01A933
:108A2000002004F07BF80AB010BD0000F7B582B05A
:108A300000200090107002980226007814460D461F
:108A4000002826D002984078801C1F287ED81D2040
:108A500069468880A81C01A97DDF002877D102988B
:108A60000078022805D1684680881D2801D8092190
:108A700008E0029808214078002801D01D2801D97B
:108A800068468088421C2A7069702178801C08180A
:108A900020700298807800281BD02078001D1F28A5
:108AA00054D801A879DF002851D121780322481C2D
:108AB00020706A5421781922481C20706A54227848
:108AC0006846808851190870000A48702078801C18
:108AD00020700298C07800280ED021780122481C0E
:108AE00020706E542078411C21702A540298C2785C
:108AF0002078411C21702A5402984068002811D027
:108B000000272178C757C81C1F281FD8481C207071
:108B10006E5421780A23481C20706B542078411C25
:108B200021702F540298008900280AD002982B4601
:108B3000062202210094083004F0E2FB0090002895
:108B40006CD10298008A00280DD001E065E065E054
:108B500002982B46072203210094103004F0D0FB2A
:108B6000009000285AD10298008B00280AD0029861
:108B70002B46152214210094183004F0C1FB0090FC
:108B800000284BD10298006A002839D02278294663
:108B90009446921D1F2A40D80288062A7ED31923A4
:108BA000DB01534E9A4201D9B24277D14788062F52
:108BB00074D39F4201D9B74270D1B24203D0B742B9
:108BC00001D0BA426AD86246521C0526634622701A
:108BD000CE54237812265A1C2270CE542278038851
:108BE000521813701B0A53702278921CD2B2227052
:108BF000408851190870000A48702078801C207045
:108C00000298466A002E2CD030792378801CC0B29E
:108C1000821C9A1829461F2A02D90C2005B0F0BDE3
:108C20005A1C2270401CC8542278FF23501C20700C
:108C30008B542078328840180270120A42702078D3
:108C4000801CC0B22070B288002A0AD0B368002B02
:108C50004BD040191946FFF7C5FA207831794018F2
:108C60002070029820300190007B00283AD00299B1
:108C70002E46896A002938D0002500282ED902986E
:108C8000816A0C2068430F18217838794A1C2270B9
:108C9000C01C705420781622411C00E025E0217091
:108CA00032542178388889190870000A4870207871
:108CB000801CC0B22070BA88002A09D0B968002987
:108CC00013D08019FFF78EFA207839794018207078
:108CD00001986D1C007BEDB2A842D0D80020009016
:108CE00005B0F0BD009805B0F0BD072005B0F0BD9F
:108CF000FFFF000000B587B006A803F0EBFA0028DC
:108D000003D00022114600F081F80698002804D014
:108D100012490120087007B000BD002000900190AA
:108D200002900390049069460590087008724020F4
:108D30000882B4204882684673DF002803D00022EE
:108D4000114600F063F8022001F0F2FB0028E2D0A7
:108D50000022114600F05AF807B000BD00200020A4
:108D6000044842680121C9050B46934383600A40C9
:108D7000C26070470005005005484168002901D1D4
:108D80000820704710B5407800F096F810BD00003C
:108D900010210020052A01D207207047F8B50B46A4
:108DA000144948600B708A605A1E0021D2B2002B11
:108DB00012D0114D0124D3001B181E789F78B600E5
:108DC000BF00761937601E782346B3401943134617
:108DD000521ED2B2002BEED1084B0A46084800F0D2
:108DE000BBF8002804D1074A0021074800F0C8F961
:108DF000F8BD0000102100200007005041BA01001A
:108E0000112100201DAB01001C210020BFF34F8F5A
:108E100003490248C860BFF34F8FFEE70400FA051C
:108E200000ED00E0002901D08A0701D0072070473B
:108E300010B50F4A0B4651601070002151709160BF
:108E4000142141431846FFF7F4F900200949C043B3
:108E50008860094840210160084A1068FF231B040C
:108E600098430B041843106005480160002010BDB2
:108E7000282100200063004080E200E004E400E0DC
:108E800000E100E00A4B5A68002A04D05B7898425F
:108E900003D30720704708207047142358438018D5
:108EA000044A12690068024000200A60704700000E
:108EB0002821002000050050F0B4224C6268002AEE
:108EC00005D06178884205D3F0BC07207047F0BC1C
:108ED000082070471C490025CD631C4909698C4650
:108EE000A168002903D10123194EDB077360012615
:108EF00086400E43142148438118A660CD600325A7
:108F000000212D048618012413588C40234212D0CE
:108F10006346234201D02B4604E00123F7685B043B
:108F20002743F7600B4C8F003C192768AF4327603D
:108F300027681F432760491C2029E4D3F0BC002088
:108F400070470000282100204061004000050050CB
:108F50000063004000070050F0B484461C48456898
:108F6000002D08D0002B09D044780678B44208D3ED
:108F7000F0BC04207047F0BC08207047F0BC07200C
:108F800070470F46142617436643AF517619336175
:108F9000B260716061460C70611C41701421002048
:108FA0004C4301220B4B03273F042E5911468140AD
:108FB0000E4206D08100C9180E68BE430E600E68CE
:108FC0000E60401C2028F0D3F0BC00207047000049
:108FD0002821002000070050F7B53F4C82B0608880
:108FE0000F46814275D80020694608703C493B4EC7
:108FF0004868C005C00D1DD0103840B200280CDAFA
:109000000207120F083A920892005118C9698007A6
:10901000C00EC1400806850F09E08108314A890069
:10902000891809688007C00EC1400806850F012D08
:1090300001D10AE00425684636DF02280CD000285A
:1090400003D000221146FFF7E1FE22786078A18864
:10905000884203DA401C02E072B6F6E70020C0B294
:10906000904207D066786078884201DA401C00E0C0
:1090700000206070012D0BD062B66846007837DFA3
:10908000022805D0002803D000221146FFF7BEFEBB
:10909000124886421AD0A068F500049941510299FD
:1090A00000290CD0002F0AD060883A464643E06879
:1090B0003018FFF797F8A0682818878002E0002191
:1090C00028188180002005B0F0BD02E0042005B022
:1090D000F0BD092005B0F0BD34210020FFFF0000E5
:1090E00000ED00E000E400E010B5184C2078617855
:1090F000814229D021782078A288904201DA401C50
:1091000000E0002020706088E26848438018A26870
:10911000CB009918D258898890472078617881428D
:1091200012D021782078A288904201DA401C00E019
:10913000002020706088E26848438018A368CA0055
:10914000D11889889A58E7E710BD00003421002023
:1091500010B4CB0008339CB2930702D010BC072098
:109160007047064B9A601219DA6000225A701A7022
:109170005880998010BC10467047000034210020B0
:1091800070B4144DAC68002C12D0002A13D0002803
:1091900011D02D780023002D07DD24265E43A65D27
:1091A000002E0BD05B1CAB42F7DB70BC0420704779
:1091B00070BC0820704770BC07207047242501262A
:1091C0005D4366552C196170A261036070BC00207C
:1091D000704700004421002010B50446082904D03F
:1091E000002211461046FFF711FE2168606888478B
:1091F00010BD000000B583B001910090034A082122
:109200006846FFF7E9FE03B000BD0000D9910100F8
:10921000FFB581B01D4616460F46980773D1002D45
:1092200071D00124394960040860394940108860D0
:1092300038498860384844602F20FEF77DFF364863
:109240008460364C002060612F20FEF775FF0020FF
:1092500020710A98A0612770A560002F16D02C46B7
:10926000103C28462438F90704D00021243001702E
:10927000243421707A0809D0002124231954195567
:109280004830483401702170521EF6D124204743E3
:109290007819224A032151700021D06001700446E0
:1092A0004170183486704460334618256B43017250
:1092B0001C1941728672C460017441741B19867452
:1092C0004361481E10619170D1700120144900055E
:1092D000086014490B68C0241B0A1B0223430B605F
:1092E00011490860114901988860114B1868FF24E2
:1092F0002402A043EC02204318604868506100201B
:1093000005B0F0BDFFE7072005B0F0BD80E100E04B
:10931000401301400013014000100140442100208F
:1093200080E200E014E400E000E100E0001501400C
:1093300010E400E0F0B4354B9D68002D0CD01C7893
:10934000A04201D2052902D2F0BC07207047242494
:1093500044432E5D012E02D0F0BC082070476419F2
:109360006478012C16D00026294D6C68E405E40DC4
:1093700020D0103C64B2002C0EDA27073F0F083FC4
:10938000BF08BF007D19ED69A407E40EE5402C0677
:10939000A40F0BE00E46E7E7A5081E4FAD00ED1940
:1093A0002D68A407E40EE5402C06A40F012C26D05E
:1093B000032C26D002248C46DB68E100CC186378AD
:1093C000A7781D465B1C9F4200D1002327789F424F
:1093D00019D0182167684D43791914D001250D70F3
:1093E00048600D48406888600E6160464A61C86008
:1093F0000A49637028050860F0BC0020704700240B
:10940000D9E70124D7E7F0BC0420704744210020AD
:1094100000ED00E000E400E00015014000E200E0A3
:109420002D498A68002A09D00B78984201D3072079
:10943000704724234343D25C012A01D0082070479F
:10944000F0B4264B5A680424D205D20D002A1ED04F
:10945000103A52B2002A0CDA15072D0F083DAD085C
:10946000AD00EB18DB699207D20ED3401A06920FBB
:1094700009E093081A4D9B005B191B689207D20EF6
:10948000D3401A06920F012A1FD0032A1FD00222AE
:10949000C968D2005218517895780B46491C8D4204
:1094A00000D10021167800258E4212D01827566868
:1094B0007B43F3180DD002241C7058605170094989
:1094C000E00408602846F0BC70470022E0E7012273
:1094D000DEE72046F0BC70474421002000ED00E0AC
:1094E00000E400E000E200E001490120086070476C
:1094F0000070004070B50C4692B000216A461170B1
:1095000007251171002809D0C17849070CD502A997
:10951000FFF78CFA002808D102AE00E00026002CEC
:109520000ED0E078002802D0284612B070BD01AA03
:109530000AA92046FFF77AFA0028F6D10AAA00E025
:109540000022684603790178304672DF12B070BDA0
:1095500073B487B0044608A9227C097800208A42A7
:1095600025D000250126684600950680458008A87C
:1095700001902174E188608A6A46A4DF002816D130
:10958000608A0E49884215D0207D002812D00295AD
:10959000039504950595E1886846018186724188A6
:1095A0008181049001980590608A02A9A6DF09B024
:1095B00070BC704709B070BC08207047FFFF000006
:1095C000F0B5054693B0086828600020C043688263
:1095D00008792875FF20287401270E46684687738E
:1095E0004A4981812A1D03A93846A0DF00287DD180
:1095F000287D002400280DD0012001466846103146
:1096000001940171717B41718179F92001406846B3
:10961000891C8171059406940794089409940A940E
:1096200069460B94087D02210843694608752A7D26
:10963000EF21002A02D01022104300E008406A46C1
:109640001075287D002800D001A80A9001226846E4
:1096500082722F4B03810094B37B0370F37B4370C2
:109660008078F9231840F723801C18400F463840B3
:109670004108490068468170317B017402A80C9052
:1096800068460E940F940D9002874487828704A841
:109690001090A888AB1D0CAA05A9A2DF002832D122
:1096A000B06800282DD001206946887219480881C9
:1096B0000094307C0870002048708878F9210840B8
:1096C000F721801C084038404008400069468870F7
:1096D00011A8B16800F09DFE02A90C9169460E9494
:1096E0000F940D9108874C87888700E00BE011A844
:1096F00010902A46E8880E320CA9A3DF002802D178
:1097000000E0EC81204613B0F0BD00000F1800000F
:10971000192A00000829000038B50A88102A1CD030
:10972000112A1CD0502A1DD1027D002A1AD0CA88C5
:109730004389891D9A4215D10A8B022A12D10268E7
:10974000002A0FD0CB7E8C7E19022143C907C90F96
:1097500009D000216B46197008E0898801E00021DA
:10976000C943418238BD01216B46197019469047A3
:1097700038BD0000F0B50746008D25499BB08842F2
:1097800042D03C4660340025A179384608AB2E46CD
:1097900000290EDC1AE0A91C3C290AD9A179891BF1
:1097A0004A007100091838462A302A31FEF71AFD9E
:1097B0000CE0710009185A19498D1170090A51708D
:1097C000AD1CA179761CEDB2B142E4DCA07969460A
:1097D000801BA0710D8000200290039004900590E2
:1097E000FA880A8101228A72888108A8049105906A
:1097F000388D02A9A6DF002804D169460988A9424C
:1098000000D00C201BB0F0BD08201BB0F0BD000044
:10981000FFFF000033B5044683B0002002226946F2
:1098200000900A80488004A8254660350190A879F8
:109830001E2808D121462C313A22881EFEF7D2FC80
:10984000A879401EA8716846018AA87942001219B9
:10985000401CA8715185E188208D6A46A4DF05B0BF
:1098600030BD0000F3B5AC4904460FC9ABB008AD3C
:109870000FC52C982546006820600020C043208535
:10988000002660352146AE71263108A863DF002826
:109890007ED12620015D10A88174A0490182221D7D
:1098A00014A90120A0DF002872D10021481C030761
:1098B0001B0F2C9A6846103307910377137C43776C
:1098C000837FF9273B409B1C837701910091029194
:1098D00003910491069103781220034368460370B4
:1098E00007A80590012310A883738D4E86810C91E3
:1098F000567C08A80674927C4274827CF7203A4019
:10990000921C0240EF2002401A4308A8827413A858
:109910000D900CA80F91109111910E900027A9792C
:1099200020461CAB3E4600290EDC1AE0B91C3C293F
:109930000AD9A979891B4A007100091820462A30E2
:109940002A31FEF74FFC0CE071000918DA19498D35
:109950001170090A5170BF1CA979761CFFB2B1427F
:10996000E4DCA8793C21801BA87168460025878724
:10997000C58710A801801CA81190A088A31D0DAA5E
:109980006946A2DF002803D12C980826406800E031
:10999000BCE000283BD02C990095019502950395D9
:1099A00004950595684606950278022002433243E5
:1099B00068460270012208A882745A4B68460386E2
:1099C0000795CB7C03770B7D4377807FF923184085
:1099D000F723801C1840EF23184043085B006846BB
:1099E00083770CA80D9007A80E900F9510951195F0
:1099F00068468287C58710A8028048681190234670
:109A0000A0880E330DAA6946A2DF00287ED12C98CB
:109A1000806800283BD02C9800950195029503950D
:109A200004950595694606950A7802210A43324352
:109A300069460A70012208A98A743B4E69460E865F
:109A40000795467D0E77867D4E77897FF9263140D2
:109A5000F726891C3140EF2631404E0876006946D2
:109A60008E770CA90D9107A90E910F951095119560
:109A700069468A87CD8710A90A808068234611909D
:109A8000988816330DAA6946A2DF002841D12C9888
:109A9000C06800283CD02C9800950195029503954C
:109AA00004950595694606950A7802210A43694698
:109AB0000A70012208A923468A741C4C69460C8648
:109AC0000795C47D0C77047E4C77897FF92421406B
:109AD000F724891C2140EF2421404C08640069468A
:109AE0008C770CA90D9107A90E910F9510951195E2
:109AF00069468A87CD8710A90A80C0681190988826
:109B00000DAA69461E33A2DF002800E001E000D163
:109B100000202DB0F0BD000078D4010060320000BC
:109B2000613200006232000063320000382A000017
:109B300038B50A88102A1BD0112A1BD0502A1CD1F4
:109B40000A46CB8844892032891DA3421CD10A8B46
:109B5000022A12D10268002A0FD0CB7E8C7E190215
:109B60002143C907C90F09D000216B46197008E0CD
:109B7000898801E00021C943018538BD01216B4678
:109B800019701946904738BDC48901466031A34217
:109B90000AD11278CA710268002AF4D002216B46F9
:109BA00019706946904738BDC48AA342FBD1127828
:109BB0000A720268002AF6D003216B4619706946C2
:109BC000904738BD70B53CC814493CC184684368AF
:109BD00002688C604B60124C00250A6025701038BA
:109BE000006800280CD0018821814188618181882A
:109BF000A181C188E1810B487ADF00280DD103E003
:109C000008487BDF002808D10020C04360806570D1
:109C1000054A00210548FFF7B3FA70BD002800206F
:109C2000D4200020DC20002099D20100D820002080
:109C3000F8B5294C07880026264A811CE389102F95
:109C400016D015466D68112F22D0122F37D0502F05
:109C50001DD1C188801D994219D1018B022916D1CD
:109C6000C17E827E08021043C007C00F0DD11CE0E8
:109C700080885080888A1082C88A5082088B90829F
:109C8000488BD0825670002B01D100F00FFFF8BD39
:109C90000020C043508056702846FFF7C1FB0028C3
:109CA000F5D0A169002908D1F8BD2846FFF7B8FB17
:109CB0000028F9D0A1690029F6D08847F8BD888826
:109CC0001082C8885082088990824889D08200F02A
:109CD000EDFEF8BDD42000200028002010B5024879
:109CE0004068FFF79DFB10BDD4200020F0B496B073
:109CF0000E4604007ED0002E7CD07068002879D0FB
:109D00000020C04320806F4808AD0FC80FC56E48C3
:109D100069460886323108A863DF00286BD1221D0E
:109D20000CA90120A0DF002865D108A8807CA071C3
:109D300000250095019502950395049505956846C3
:109D4000069501780420014368460170A17910A8A6
:109D500081735E498181002001466846079501773D
:109D600001200146684610314177817FF92739404B
:109D7000F720891C0140EF20014001200143684683
:109D8000817713A80D9007A80E900F951095119547
:109D900068468587C587142110A8018023469888C6
:109DA00008330DAA6946A2DF002824D10095019549
:109DB0000295039504950595684606950278082056
:109DC000024310210A4368460270A27910A88273E8
:109DD0003F4A8281002002466846079502770120AB
:109DE0000246684610324277827FF92002402346BD
:109DF000F72701E061E05DE0921C3A400A43012050
:109E000002436846827713A80D9007A80E900F951D
:109E10001095119568468587C587172110A8018080
:109E2000988810330DAA6946A2DF002842D1009518
:109E30000195029503950495059568460695017868
:109E4000022211430170A17910A8817321498181F7
:109E50000120014668461031079501770020014630
:109E600068464177817FF9200140891C3940EF2005
:109E70000140012739436846817713A80D9007A850
:109E80000E900F95109568468287C58710A80280AE
:109E900023461196988820330DAA6946A2DF002830
:109EA00008D17068A062B068002800D0E0620A485B
:109EB0000770002016B0F0BC704716B0F0BC0E2042
:109EC00070470000B8D401003015000032150000C2
:109ED000311500003415000068200020002876D0DD
:109EE000002974D0F0B50D46816A8FB0002940D0AA
:109EF000298810292AD0112938D0502928D0512951
:109F000037D10446A879AE1D022832D17088218A43
:109F100088422ED1A87A04282BD0062829D00528DB
:109F200027D002206946002708700C9708864F86C4
:109F30000AA80D90A18A20880CAAB61CA5DF0028CB
:109F400019D0E16A002923D0884721E0A9880FE0D1
:109F5000E988028991420CD108216A461171A97FD2
:109F600011722035039501A9826A60E00021C9437E
:109F700001800FB0F0BD6846008DC007C00F07D04C
:109F80006846878020886946A8DF00285CD106E003
:109F9000FF20FE30694688802088A8DF54E0B17E2B
:109FA0000120233509294BD20A007A4412799218EC
:109FB000974446040E181C20244228006A46177550
:109FC000328B022A09D36946087607952CE043E0D4
:109FD0006A461075328B022AF5D20622204600F01E
:109FE0003DF831E00220694608751DE0032069460E
:109FF000087519E004206946087515E005206946D2
:10A00000087511E0308B032805D203220821204671
:10A0100000F024F818E0307FF17E00020843694622
:10A02000088307D006200875A26A05A92046904734
:10A030000FB0F0BD0720F6E7092069460875F3E781
:10A040000322204600F00AF80028F1D0E16A002936
:10A05000EED088470FB0F0BD70470000002801D156
:10A060000E20704730B40388134C86B0A3421ED034
:10A07000124B1B78002B1AD0114B10251D705970F4
:10A08000002401259A7003216A46118200940194EC
:10A0900002940394018A11809570948004A902911E
:10A0A000039300886946A6DF06B030BC704706B04F
:10A0B00030BC082070470000FFFF0000682000202F
:10A0C0006920002030B585B00446012069468871BA
:10A0D00056488880564A01A90120A0DF00287DD17A
:10A0E000228825463C35002A08D0524800902B464D
:10A0F0005148616800F0E2FB00286FD12289002AF4
:10A1000008D04E4800902B464D48E16800F0D6FB41
:10A11000002863D1228A002A08D04A4800902B46A2
:10A120004948616900F0CAFB00287CD1228B002AD3
:10A1300008D0464800902B464548E16900F0BEFB38
:10A14000002870D1228C002A08D0424800902B466B
:10A150004148616A00F0B2FB002864D1228D002AD8
:10A1600008D03E4800902B463D48E16A00F0A6FB2F
:10A17000002858D1206B002829D0027869460A723D
:10A180000188FF22120211400A0A69464A72FF2220
:10A190000168120411400A0C69468A7201682B4654
:10A1A0000A0E6946CA7202790A73027A4A730189F1
:10A1B0000A0A69468A7380680822000CC873294815
:10A1C000009002A9284800F079FB00282BD1606B91
:10A1D00000280BD025490091027900E023E00168B6
:10A1E0002B46234800F06AFB00281CD1A06B0028F6
:10A1F00018D0027869460A7242884A72120A8A7234
:10A200008288CA72120A0A73C0884873000A887367
:10A21000184800902B46072202A9174800F04EFB71
:10A22000002800D1002005B030BD00000A18000051
:10A230007020002072200020292A00007A200020AF
:10A24000242A000082200020252A00008A200020E5
:10A25000272A000092200020262A00009A200020B1
:10A26000282A0000A2200020232A0000AA20002083
:10A270002A2A0000B2200020502A000070B50446AF
:10A2800000F0F4FD2088534D534E142853D006DCC3
:10A2900010280BD011281FD0132846D136E01728DC
:10A2A00044D019286AD052283FD137E0072000F067
:10A2B0003FF9002803D000221146FEF7A7FDA08831
:10A2C0006880FEF771FBFF21002207316869FFF704
:10A2D00031F8002869D16CE0002000F029F900284D
:10A2E00003D000221146FEF791FD0020C043688094
:10A2F0006869FFF795F8002803D000221146FEF7A1
:10A3000085FDFEF733FBFEF7F5FC52E0334B344A94
:10A31000002168887FDF002847D14AE0032300221C
:10A3200011466888A9DF00283FD142E0A11D3046D0
:10A33000FEF79CFA3DE020460A222A490E30FDF73E
:10A340008AFF002805D000203179014203D0264E33
:10A3500002E00120F8E700268A07D20F024000D071
:10A36000224A4907C90F014201D0214B00E00023D6
:10A370003146688882DF002817D11AE0A0790028CA
:10A3800017D100F0D5F8002803D000221146FEF7BF
:10A390003DFD012000F08AF8002803D0002211467C
:10A3A000FEF734FD3CDF002803D000221146FEF703
:10A3B0002DFD2046FFF73CFC21460E48FFF7B8FB79
:10A3C00021460D48FFF7A8F921460C48FFF786FD06
:10A3D00070BD0000002000201D200020242000204F
:10A3E000182000209E2400208C240020A824002077
:10A3F000BF2400200426002070260020882600208C
:10A4000070B504460D460846FDF71EFF20806560C6
:10A4100070BD0A78027049784170022070470000D0
:10A4200010B50B484168491C41600A48FFF7A2F982
:10A4300000280BD0082809D00749884206D00749D0
:10A44000884203D000221146FEF7E0FC10BD000058
:10A450000020002004260020043000000134000009
:10A4600010B5FDF747FE10BD0022012916D130B40A
:10A470000B49CB68002B07D00A4994000C59844241
:10A4800004D0521C042AF8D330BC7047042AFBD2F3
:10A490000548805C0028F7D030BC184770470000A2
:10A4A0004820002088D40100582000201B4AC30700
:10A4B0001B49136804D08B43136013680B4302E0FD
:10A4C0008B43136013681360164A8307136804D51F
:10A4D0008B43136013680B4302E08B4313601368D4
:10A4E0001360114A4307136804D58B431360136844
:10A4F0000B4302E08B4313601368136002070B48A1
:10A50000026805D58A43026002680A43026003E0DC
:10A510008A430260016801600020704744070050D0
:10A5200000000300480700504C070050500700503F
:10A5300010B505490246097A0020C90702D0104625
:10A5400000F052F810BD00004820002070B504460D
:10A550001D4B00209C60DA605960A2071BD51B4B85
:10A56000002210460B30C5B20020042A01D29D54AF
:10A5700000E00720521C042A02D20028F1D00AE091
:10A58000002808D14A0804211148FEF703FC0028DE
:10A5900001D1FEF7F1FBE10706D00F220D4952056C
:10A5A0008A600023CB608A6100280BD10A4A00210F
:10A5B0000A48FEF7E5FD002804D1094A01210948AF
:10A5C000FEF7DEFD70BD000048200020582000206E
:10A5D00098D401000005005071BA01005C200020F1
:10A5E000618D01006020002070B504460020182C09
:10A5F00018D221007944097949188F440B14143773
:10A60000566D88A2AFBFCFDCF3FAFAFAFAFAF0EF90
:10A61000EEEDECEC0B22A64952058A600022CA60DE
:10A62000A4490A7070BD0521A148890581600021F7
:10A63000C16042680F235B055A4092029E4A09D5C9
:10A640008260C160022C02D07D20400123E0E12025
:10A65000C00020E0C2608160022C02D0FF20913057
:10A6600019E0C82017E0FEF765FE70BD052190488F
:10A67000890581600021C16042680F235B055A4053
:10A6800092028D4A04D58260C1601920400102E027
:10A69000C2608160C820874D64212C70FDF778FD71
:10A6A0006968414300226869DDE705218048890522
:10A6B00081600021C16042680F235B055A4092020D
:10A6C0007D4A04D58260C1607D204001E3E7C2601D
:10A6D0008160FF209130DEE70521754889058160A2
:10A6E0000021C16042680F235B055A409202724A02
:10A6F00002D58260C16001E0C26081606D480022C5
:10A700000470416840694900FEF714FE70BD0521E0
:10A710006748890581600021C16042680F235B059D
:10A720005A409202644A02D58260C16001E0C26070
:10A73000816060480022047041684069FEF7FAFDBC
:10A7400070BD05225A4992058A600022CA60012321
:10A750005B05CB608A6057490C7070BD54494868EE
:10A7600001229205134683438B601040C860514814
:10A77000002241684069FEF7DDFD70BD4C4A50681B
:10A78000012189050B46834393600840D060494806
:10A79000416840698A008918002264E7444841689A
:10A7A0000122920513468B4383601140C1604148EA
:10A7B000002241680DE03E4A5168012080050346B1
:10A7C0008B4393600140D1603A4841688A00891800
:10A7D0000022406947E761E053E045E037E02DE0C3
:10A7E00007E0FFE70F2232495205CA6000228A6063
:10A7F00070BD304DA869FEF713FE11210A1B01D070
:10A80000002806D001222A49D2058A600022CA60A7
:10A8100070BD012A0BD91046C82148436421FDF7B9
:10A82000B7FC696800224143A869FEF783FD012255
:10A830001F49D205CA6000228A6070BD0F221C49E0
:10A8400052058A600022CA601A490C7070BD072246
:10A85000174992058A600022CA6001235B05CB601C
:10A860008A6014490C7070BD0D22114952058A602E
:10A870000022CA6001239B05CB608A600D490C70E1
:10A8800070BD03220A49D2058A600022CA600323F0
:10A890005B05CB608A6007490C7070BD0F220449CC
:10A8A0005205CA6000228A6002490C7070BD000027
:10A8B000000500504820002000002000F0B58FB0B7
:10A8C0001D4614460E00074604D1002211461046CC
:10A8D000FEF79CFA002C04D1002211461046FEF728
:10A8E00095FA00200090019002900390049005904A
:10A8F000694606900A7802210A4369460A700122D5
:10A9000008A98A7069460F8407902A780A776A78BE
:10A910004A77897FF9221140F722891C1140EF22E2
:10A9200011404A08520069468A7708A9099107A987
:10A930000A910B900C9069468C85C8850C8604485A
:10A940000D9609AA0088149BA2DF0FB0F0BD00008D
:10A9500070200020F8B5394914230A780F205A4393
:10A9600054183749227926698F88241D022A24D059
:10A9700001252D07042A33D0052A1DD1286981B26B
:10A980003046FDF705FC0146286982B2A0884A439B
:10A9900083199A1A2B6992089BB24D1C6B436588E8
:10A9A00040198019181A8308204602F091F90028EE
:10A9B00002D1224901228A70F8BDB8026288216959
:10A9C000121A0918A3883018181801239B029A42FA
:10A9D00002D2920829DFEAE7FF22013229DFE6E707
:10A9E000A368184819010818018942894068B042D3
:10A9F00003D160885143814218D0022B16D02869B8
:10AA000081B23046FDF7C4FB0146286982B24A4351
:10AA1000B01A820828694B1C80B2584363889B197E
:10AA2000C01A8308204602F053F9C0E7286981B2B2
:10AA30003046FDF7ADFBC01928DFB8E71C28002021
:10AA4000FC200020E8280020F8B5144C069E65780C
:10AA50000A2D20D027787D19EDB20A2D01D30A3DA9
:10AA6000EDB214277D432D192871002068716A61A9
:10AA7000086849682961E860EB802E81A178002090
:10AA8000002904D1FFF766FF112800D1002061786A
:10AA9000491C6170F8BD0420F8BD00001C2800208E
:10AAA00010B500221146FEF7B1F910BDF8B51748F0
:10AAB000194D4288164800260388164C69699A4247
:10AAC0000BD34088824208D80120002903D06A466F
:10AAD0001070684688472670F8BD2078002804D09A
:10AAE0000029F8D068460670F4E7607800280AD09C
:10AAF000A96800226068FEF71DFC0028EBD0A96958
:10AB00000029E7D1E7E76968F3E70000E4200020C7
:10AB1000DC200020D420002000280020F8B5194CAB
:10AB200069466078FEF7AEF9002829D12078002523
:10AB3000002825D9144F01266168E80041180878DB
:10AB400033463A6883401A4208D04A68002A05D042
:10AB5000497801290BD00CE090470CE07A681A4242
:10AB600009D04A68002A06D04978012901D000217D
:10AB7000F2E70121F0E76D1C2078EDB28542DBD3CE
:10AB8000F8BD00001021002020210020F0B50E4665
:10AB900083B0044681786A46224801F0AFFB002862
:10ABA00025D160780C21204F4843C019807A400697
:10ABB0001FD4022E1DD0012E1DD01C4DA0781C21AB
:10ABC00048431B49002341181C226846A847002817
:10ABD00013D0022E0BD020780C2148431549401881
:10ABE000807A154980000A5821466846904703B08C
:10ABF000F0BD124DE2E7124DE0E7022EF7D060788B
:10AC00000C214843C019817ABF22114081726078BB
:10AC10001C2148430B4941181C231A466846A84783
:10AC2000D9E70000CC200020D0270020CDCC0100A7
:10AC3000CC260020DC270020C8D4010025C8010054
:10AC4000EDC501009027002030B5044683B00D46C5
:10AC5000100003D000221146FEF7D8F828781528F6
:10AC600031D104200190194802906946204600F035
:10AC7000F5F8002803D01649884224D01FE0154873
:10AC8000017AC90716D0144A0C214088A7DF002892
:10AC900010D0124988420DD008280BD0891C884258
:10ACA00008D0112806D00E49884203D00022114650
:10ACB000FEF7ACF8204600F0CDF8002803D00022C3
:10ACC0001146FEF7A3F8002003B030BD0820002095
:10ACD0004080000000200020FFFF00000230000044
:10ACE0000134000070B509788CB000290BD0032224
:10ACF0000121FFF7B3F9002803D000221146FEF727
:10AD000085F80CB070BD048808206946888001234E
:10AD100001AA41492046AADF404800688047B12087
:10AD200044DF002803D000221146FEF76FF811DF40
:10AD3000002803D000221146FEF768F8384D6869F4
:10AD400013DF002803D000221146FEF75FF8002130
:10AD500000912046334900F05FFB0124002817D101
:10AD600002A9304800F0FCFA00282AD02E492D48CC
:10AD700000F002FC002803D000221146FEF746F83E
:10AD8000294800DF002803D000221146FEF73EF8D4
:10AD9000012026498005086025480168254A0020D1
:10ADA000234683400B4204D0C606F60E2346B3402A
:10ADB0001360401C2028F3D36869FFF751FB0CB0E7
:10ADC00070BD0699072218481031FDF70BFA1022C2
:10ADD00019480699FDF706FA112218480299FDF75D
:10ADE00001FA02990A2216481231FDF7FBF90E48C2
:10ADF00000DF002803D000221146FEF707F80420E8
:10AE00000990009468460A9008A9064800F02AF8BC
:10AE10000028B9D1BCE700005429002008210020F7
:10AE2000001000100C2100202029002080E200E00A
:10AE300000E100E080E100E027290020382900201F
:10AE40004A2900207047000001490860704700004F
:10AE5000082100200048704791800000004870479A
:10AE6000918000000048704791800000F0B593B0D9
:10AE7000002104460291FF20FC4904900978002932
:10AE800048D0FB490968002944D069464873887353
:10AE9000C87300210E91211D06912A2369460020C6
:10AEA0008B8308730546F3482288C17A807A102A7A
:10AEB0000ED0A2880226EF4B304209D0EE4EB242AD
:10AEC00002D01B89934203D16B46002299735A73B7
:10AED000E74E23881327E94A767A1096172B7DD000
:10AEE0000BDC102B18D0112B79D0132B78D0142B0E
:10AEF00010D1E04EFF2974D0DFE0DD49897A8E0061
:10AF0000182B6FD01C2B6ED0522B03D1DC488159EB
:10AF100003A8884713B0F0BDD74EC007C00FF9D0C3
:10AF2000D44802218172112269460A7500234B73AD
:10AF3000A18801810722A11DFDF754F9207DC107D9
:10AF400006D04108CF48405CFF281BD0049019E090
:10AF5000A71D0024002F0CD020461C214843CA49BD
:10AF60000722401839461030FDF775F9002808D03F
:10AF70001EE01C2021464143C3480818008BB04204
:10AF800016D1049404982A46C1B20C204243B94811
:10AF900008231018C172827A03AC1A438272684681
:10AFA000817310AAB94801F0A9F9002804D0B1E1D1
:10AFB000641C072CCED3ADE16846417B1C20414385
:10AFC000B3481C2308181A4610A901F04DFAA848E6
:10AFD000807A8100AF484258214605E0E2E006E071
:10AFE00080E036E06CE193E110A8904792E1FD210A
:10AFF000A04E0840B072010706D5C00923D0002139
:10B0000003A8FFF7C3FD1EE06846877BFF2F1AD019
:10B010001C20394641439C480C1820461130FDF74E
:10B020000CFC10212046FDF704F9FF2020740021BC
:10B03000A076C94321838D4901224B68BA409343CE
:10B040004B60694688731020B072122069460875FB
:10B0500060E1E1898C4A00201C2703467B439B1852
:10B060001B8B8B4203D0401C0728F5D325E0C1B2CF
:10B0700004900C2068438019C172827A08231A4315
:10B0800082726846817303AF0EAA804801F036F9D8
:10B09000002812D16846407B1C2148437C491C2370
:10B0A00040181A460EA901F0DFF97148807A810034
:10B0B0007848425839460EA890470C2068438019BA
:10B0C000C07AFF2804D01C207149684340180290C0
:10B0D0001C2045436C4802992A18A088002382DF6F
:10B0E00013B0F0BD6B461F750426624B3043987257
:10B0F000FF2927D016206946087510461A21FDF74A
:10B1000098F85C484022817A114381720C21594A97
:10B110006943002089180B90C97A1C2251435A4A6E
:10B120000D9089180C911C216943C432891808912B
:10B1300009900A90A08808AB574A00217FDF0028B9
:10B14000CED1E7E004A84B4B544A4F49002610905B
:10B1500030461C2778434018807EFF2804D0761C98
:10B16000072EF5D30E92D1E7187802280AD01C20BA
:10B1700070434018FD218176072219461030FDF7F3
:10B1800031F804E01C2070434018FE2181761098AD
:10B1900069460670049888730C21364A69438918F9
:10B1A000C872B3E77308324A5B005372FB22314B1B
:10B1B0001040987214226E463275A279002A28D067
:10B1C0000E4610AA314801F099F800281ED16021DE
:10B1D00010A801F0BDF8002818D137461C204643BE
:10B1E0002948361830461130FDF727FB102130462C
:10B1F000FDF71FF8FF203074B0760020C043308385
:10B200001A4801214268B9408A434260A0790E90F1
:10B2100080E0E27952077DD5B27BFF2A7AD00826FA
:10B2200030439872E07A800708D510461C246043AA
:10B23000154C0019847E640864008476FF2969D067
:10B24000187802282CD01C200F4C424310190722DA
:10B2500019461030FCF7C6FF6846807B1C21484326
:10B260000019817EFD22114024E00000BC20002056
:10B27000DC270020D0270020FFFF0000B42700209B
:10B28000E8D40100C4200020CC260020CC200020DF
:10B2900090270020D8D40100E02700204380000040
:10B2A0002A48418A1C204243294810180183817E84
:10B2B000490849008176012103A8FFF767FC29E0CE
:10B2C000A1790B09012B17D10907090F012913D106
:10B2D000204C010710D51A211046FCF7AAFF1620B2
:10B2E00069460875A07A60210843A07210981A492F
:10B2F0000222104348720DE01649802210438872E2
:10B300001520694608751548815903A8884701E04A
:10B3100068460775104B03A81B6805A90E9A984745
:10B320006846007D122800D0DAE60C204543094823
:10B330002818817A0129F7D001218172891E0181A3
:10B34000FF21C172FDF781FA13B0F0BD90270020F4
:10B35000CC260020D0270020DC270020E8D40100E4
:10B36000F0B5064625480C46017825488BB00029E3
:10B370003CD0811D002E3BD0002C39D031780029E3
:10B3800034D120490025096800292FD0B07807283A
:10B3900031D21C211C4F4843C019807EFF282AD07F
:10B3A000E560B07865614843C01920611748A56021
:10B3B000606068462060B17808AA154800F09EFFDA
:10B3C000002813D11C231A4608A9684601F04CF83E
:10B3D00000280BD1E560B1781C225143C919656181
:10B3E00021610A49A5606160694621600BB0F0BD2A
:10B3F00008460BB0F0BD07480BB0F0BDBC200020E4
:10B4000008800000DC270020CC260020E827002050
:10B41000CC20002010800000002901D10D48704789
:10B4200030B403460878002811D10B480024006886
:10B4300000280CD0FF20094A8870158905209D42FC
:10B4400003D14C70D07A8870002030BC704730BC7B
:10B45000034870470E800000DC270020D027002022
:10B4600008800000F1B584B00498002852D0384814
:10B470000024046044728472364801268672364D78
:10B480000581FF27C772FDF7E0F934488021046683
:10B4900044668466C466046744678467C467304F43
:10B4A0000C501C206043C51928461130FDF7C5F922
:10B4B00028461021FCF7BDFEFF2028740021A87645
:10B4C000C9432983274932464B68A24093434B60C6
:10B4D00025490855641C072CE3D360216846818008
:10B4E0000721C180214800902149684601F002F8F7
:10B4F00000280DD11B4C26700498007800280CD031
:10B5000069468888C988484381B2194800F020FFFD
:10B5100005B0F0BD174805B0F0BD0025A9B202AADC
:10B52000134800F0EBFE002809D11C206843C01925
:10B5300000231C2202A900F097FF002803D000215D
:10B54000217005B0F0BD6D1C072DE7D305B0F0BD2F
:10B55000DC270020D0270020FFFF00004C27002020
:10B56000CC260020BC200020C420002005B601000D
:10B57000CC2000200E8000000B4610B51B491C4A51
:10B58000097800291FD0911D002805D0002B03D079
:10B590000178002917D101E0084610BD1549096856
:10B5A000002910D08178144AFF290ED01C20414375
:10B5B00012480918887E800705D4072218461031E2
:10B5C000FCF710FE0022104610BD4078FF28FAD08C
:10B5D0000C2148430A494118887A8007F3D507228D
:10B5E0001846FCF7FFFD0022EDE70000BC2000201C
:10B5F00008800000DC27002005800000CC26002009
:10B60000D0270020FFB5564893B000681C9F1D4608
:10B610001646002863D0602F61D8FF206946487025
:10B620008870C87000200870087104460597069558
:10B63000A1B20AAA4B4800F061FE002806D10822F8
:10B640000AA91398FCF707FE002817D0641C072CE2
:10B65000EED368468478FF2C41D01498042810D08B
:10B6600041481C21281AFCF793FD0127072825D201
:10B6700004A802903D48002E12D016E0684684705F
:10B68000E7E7602F03D040206946087102E02020E0
:10B6900069460871C0B2032108436946087152E047
:10B6A00039464268A140114219D039464268A1404A
:10B6B0008A4342602020694608713BE02C4C1C21E3
:10B6C000281BFCF765FD00280BD02A4C2421281BE1
:10B6D000FCF75EFD00281AD040206946087117B0BB
:10B6E000F0BD04A80290202069460871002048702F
:10B6F0000F9021480C94109088781C2148431A49D7
:10B7000040180D900CA806901820059012E03020EB
:10B710006946087100204870CF701849897A8907F6
:10B7200008D420606060A060E06020616061A0617A
:10B73000E061206214986946032808790DD002213F
:10B7400008436946087104A80290054B08461B6827
:10B7500001A93246984717B0F0BD38439EE7000074
:10B76000DC270020CC200020CC260020BC2000209C
:10B7700090270020AC270020E8270020D0270020B9
:10B7800070B5064617480D46007800280DD01649BA
:10B79000002E0CD0002D0AD02868002807D0134CAA
:10B7A0002168002905D0124870BD124870BD0846B6
:10B7B00070BD2060691D1048FDF74DF82879A07212
:10B7C000207A0222400840001043FB2318402072D8
:10B7D000E1790120014311431940E17100203070EB
:10B7E00070BD0000BC2000200E800000DC2700207F
:10B7F0000480000008800000E027002010B5002829
:10B8000023D0124B0022001F196803E0814203D8A5
:10B810000A4649680029F9D1002A0AD01368841A17
:10B820009C4204D1006818181060104602E0506075
:10B8300000E01860002907D002680B1A934203D178
:10B840000B68D21802604968416010BD7C2100205D
:10B85000002070470020704700207047F8B505466B
:10B86000407824214143254A0C238A1894465843A2
:10B8700000245268224B2746C01826469646002AC6
:10B880000BD0837A1A46DB0907D0530605D41B4A2E
:10B890006446734656589FB20834008933463A4688
:10B8A0002146A9DF0B281BD0002800D01548012E07
:10B8B00015D168780C2148431149134A4018008972
:10B8C0000C21A7DF00280AD01049884213D008288D
:10B8D00011D0891C88420ED011280CD00020F8BD50
:10B8E00068780C21484306490123401800893A46EC
:10B8F0002146A9DFDDE70348F8BD0000AC270020A2
:10B90000D027002041800000FFFF0000023000002F
:10B9100070B50C46014660782422084D504340190A
:10B92000382300F0A1FD002807D16178242251437B
:10B9300049194A68521C00D14A6070BDAC270020EA
:10B94000F3B589B00D461A206946888368780C21C2
:10B9500003274843264E3B468019008907AA6946BB
:10B96000AADF002840D1687824214843214C694649
:10B9700000198A8B0830FCF76EFC0028687807D025
:10B980002421484301194968002915D01A4E14E0B2
:10B990000C2141438919897A890725D424214843F8
:10B9A00000190021016041608160C1600161416155
:10B9B0008161C161016217E0104E27506846828B99
:10B9C0006878242148430019426068784843001988
:10B9D00069460830FCF706FC6878242148430119C1
:10B9E000382324220998B04700200BB0F0BD000096
:10B9F000D0270020AC27002025C80100EDC501009C
:10BA000010B5FFF72BFF10BD70B50C4601466078EE
:10BA10002422084D50434019382300F025FD00280A
:10BA200007D161782422514349194A68521C00D138
:10BA30004A6070BDAC27002010B5FFF781FF10BD34
:10BA400070B5094D04460E46E868FDF7E9FC00288C
:10BA500008D106480660446034432246A968E86875
:10BA6000FDF768FC70BD000010210020202100209F
:10BA700010B50448017AC90702D00078FEF7B4FD7A
:10BA800010BD000048200020A4B000234822FE4939
:10BA9000112000F06FFF002803D000221146FDF7AF
:10BAA000B5F900240294012568460394057202A8A2
:10BAB00060DF002803D000221146FDF7A7F9F34804
:10BAC00000F04EFF002803D000221146FDF79EF93A
:10BAD000EF4800F06BFF002803D000221146FDF76D
:10BAE00095F9EC480090EC4B052208210020FDF769
:10BAF0008FFB002803D000221146FDF787F9E74AA3
:10BB00000121E748FDF73CFB002803D00022114645
:10BB1000FDF77CF9E34A0121E348FDF731FB0028FA
:10BB200003D000221146FDF771F9E04A0121E048F7
:10BB3000FDF726FB002803D000221146FDF766F929
:10BB4000DC490320FDF76EF9002803D000221146DE
:10BB5000FDF75CF90022D8490320FEF7F7FC002826
:10BB600003D000221146FDF751F90120FEF79EFC9B
:10BB7000002803D000221146FDF748F900F01EFC12
:10BB8000002803D000221146FDF740F904A8FFF772
:10BB900069FC002803D000221146FDF737F901A8FF
:10BBA0000130FCF743FE69464879E121284308400B
:10BBB000DF210C3008406946487107208871102643
:10BBC000CE71BE4800900D71BD48FFF7D9FD002829
:10BBD00003D000221146FDF719F9BA4A0A210820BC
:10BBE000FDF7B6FA002803D000221146FDF70EF942
:10BBF0001120694608710822B3A101A87CDF002842
:10BC000003D000221146FDF701F90D20800178DFF5
:10BC1000002803D000221146FDF7F8F802941821FD
:10BC20006846039401814181FF2184819131C18162
:10BC300002A87ADF002803D000221146FDF7E6F8BB
:10BC4000A44F05203B69FA68B968029403940194F3
:10BC50000494079408940094069409940D920C910E
:10BC60000A940B940E93022269460A708D70C87074
:10BC7000032008820CA8059000216846FDF73AFCD5
:10BC8000002803D000221146FDF7C0F820A8047058
:10BC90000C210171047215948F48109020A8139004
:10BCA000169421A8119022A8129001200146149404
:10BCB00010A8103101740120014610A81031417400
:10BCC0000020014610A881740120014610A81031FF
:10BCD000C1750020014610A801760120014610A878
:10BCE0001031C1740120014610A8103101750120E6
:10BCF000014610A8103141750120014610A81031ED
:10BD0000817501467548FDF7ADFD002803D000227E
:10BD10001146FDF77BF872481790189419941A94FD
:10BD20001B9418A80570642101720120014618A80F
:10BD3000103141720120014618A810318172002093
:10BD4000014618A8C1720120014618A810310173DC
:10BD500017A96448FDF734FC002803D000221146DF
:10BD6000FDF754F840216846FCF763FA5EA1684687
:10BD7000FEF746FB08A9112008770020487768469F
:10BD8000FEF7A0F9002803D000221146FDF73EF887
:10BD900056481E901D941F9410A885861DA95448CE
:10BDA000FDF7A4FF002803D000221146FDF72EF86E
:10BDB0005048FFF749F838680090019468460470CD
:10BDC0000621417000F026F94B4901204860072008
:10BDD00032DF002803D000221146FDF717F80321B7
:10BDE000072033DF002803D000221146FDF70EF8AC
:10BDF00007202EDF002803D000221146FDF706F8A9
:10BE00000520C00301900F200004029000940394C9
:10BE10000494032168460173304841896846C18112
:10BE2000047436480590364806906846FDF7CAFE09
:10BE3000002803D000221146FCF7E8FF3149E12237
:10BE4000087828431040DF220C301040087007208B
:10BE500048702D488E7004602C488661FCF748FDC0
:10BE6000FCF74CFD0020089078690090F96AB86AE8
:10BE700005900691684685761D2001901C20029051
:10BE80001920234E039045E0D02400207DA201001C
:10BE900071CE0100F591010084210020E994010098
:10BEA0000C20002021A401001020002001C9010065
:10BEB00014200020C8250020CD0C000049AC010052
:10BEC0000120002018250020455053656E736F72C5
:10BED0000000000048D40100B9C001000426002081
:10BEE00081C001007026002056435500E5AC0100DA
:10BEF000882600209DC80100007300400DC201008B
:10BF0000A1AA0100182000203C07005000050050A5
:10BF1000C1C901000D200490684604766946204698
:10BF200000F060FD002803D000221146FCF76EFFF0
:10BF30003146089800F046FD1548164C0A21FCF7DA
:10BF400078F90A212046FCF774F91149122008708B
:10BF5000FCF71BFDFCF7A6FCFCF708FD0E480F21C3
:10BF600000228904C068FDF7E5F9002803D000220B
:10BF70001146FCF74BFFFCF7BDFEFDF7B5F848DFB7
:10BF80000028FAD000221146FCF740FFF5E7000038
:10BF9000B8260020C226002000200020F0B50B307B
:10BFA000C108C900144F0026144A0FE003688B42F1
:10BFB0000BD38B4205D95C1A4318456830C3083B44
:10BFC00000E04368136002C004E0021D106800280E
:10BFD000ECD13046002803D13868002801D0002079
:10BFE000F0BD064A06481060064A121AD208D2006E
:10BFF00044C001203860D7E7802100207C21002048
:10C000006429002060310020002070470020704724
:10C010000020704710B40178427889075207890FD1
:10C02000D20E0A4341688807400E10438A03920FDC
:10C0300003D00322120411400843074900244B682F
:10C04000FF22120293434B600C604B681340034382
:10C050004B6010BC704700000075004031B500987F
:10C06000002809D0054C00992046491E0091FCF794
:10C0700031F800990029F6D138BD0000E70300002F
:10C0800010B50C480978C068002906D0012903D1F1
:10C09000FDF7C6F9002807D110BD0F210022890441
:10C0A000FDF748F90028F7D000221146FCF7AEFE54
:10C0B00010BD000000200020F8B50546514C08785E
:10C0C0002369002817D0012821D08F2670276035DA
:10C0D000022822D0032819D101216A460846FCF71C
:10C0E00019FC287A042843D20100794409794918B7
:10C0F0008F44293F5469002243491846FDF71AF935
:10C10000002803D000221146FCF780FEF8BD184637
:10C11000FDF786F90028F5D1F8BD6A460121042013
:10C12000FCF7F8FBE8790107090F08D1011106298E
:10C1300005D86A4611783840314001431170012119
:10C140006A4604205AE06946087830400870606901
:10C15000FDF766F9002803D000221146FCF756FED1
:10C16000FF21002207316069FDF7E4F800283ED185
:10C1700041E069460878304008706069FDF750F981
:10C18000002803D000221146FCF740FE0022832144
:10C190006069FDF7CFF8002829D12CE069460878BE
:10C1A000304008706069FDF73BF9002803D0002299
:10C1B0001146FCF72BFE002242216069FDF7BAF818
:10C1C000002814D117E0694608783040087060698B
:10C1D000FDF726F9002803D000221146FCF716FED1
:10C1E000002221216069FDF7A5F8002803D0002274
:10C1F0001146FCF70BFE01216A460846FCF7E8FBF6
:10C20000F8BD000000200020D703000010B5007822
:10C21000002809D105483B21408876DF002803D05B
:10C2200000221146FCF7F2FD10BD000000200020A6
:10C23000F0B5002403260122234B244D244983B06A
:10C2400005280DD207007F443F79FF19BF44020A39
:10C250002E192000487801281AD0022800D14E70EB
:10C2600003B0F0BD4878002805D00328F8D102209B
:10C27000487003B0F0BD042028601A604A7003B013
:10C28000F0BD4878012809D0022807D00328F6D14C
:10C290004C70DA605A602C6003B0F0BDDA604A700E
:10C2A00068460670C968884703B0F0BD4878012821
:10C2B000FAD14878022800D09A608878E861022094
:10C2C000487003B0F0BD0000002000400025004091
:10C2D000EC20002007490978002906D0002806D064
:10C2E00005494978016000207047082070470E20FA
:10C2F00070470000FC2000201C280020124B1B78F7
:10C30000002B05D0002801D0002A03D10E20704751
:10C310000820704730B40468002C0DD10B4B1D6809
:10C32000002D09D045681889414369185D89454346
:10C3300058682818884202D830BC0720704714601B
:10C34000516030BC00207047FC200020E82800200D
:10C35000F8B5044617480E460078002805D0002C92
:10C3600005D0206800281BD103E00820F8BD0E206E
:10C37000F8BD114900250868002811D048890A89AC
:10C380004968504343186068834209D9830701D044
:10C390001020F8BD401A1146FBF7FAFE002901D023
:10C3A0000720F8BD33460022214604200095FEF701
:10C3B0004BFBF8BDFC200020E8280020F8B5002445
:10C3C000244A254D948054702C706C70AC702046BB
:10C3D00001261421414349190C71CC800C61CE60B7
:10C3E0004C61401C0C810A28F3D31A4844801B4836
:10C3F00040691B4F411C04D0396989B2FBF7C8FE64
:10C4000000E078693969801E89B248431149886023
:10C4100014488C8004600481848144810820487021
:10C42000386984B20D484069411C04D0396989B229
:10C43000FBF7AEFE00E078693969401E89B24843D7
:10C440002146FBF7A5FE28DF002802D10149AE7086
:10C450000E70F8BDFC2000201C28002000100010E9
:10C4600000000010E8280020F8B507461F481646CF
:10C4700000780D46002807D0002D07D0002F05D0EA
:10C480002868002817D103E00820F8BD0E20F8BD69
:10C49000174C206800280ED06089218962684843C3
:10C4A00082186868824206D9002E04D0B14202D3B5
:10C4B000F2188A4201D90720F8BD39461943890785
:10C4C00001D1810701D01020F8BDC118324638468D
:10C4D000FBF788FE009628680022000124583B469E
:10C4E00003212846A0470020F8BD0000FC200020C2
:10C4F000E8280020F8B5064639480D46007800289F
:10C500001CD0002E1CD0002D1AD03068002817D067
:10C51000012424072069B78880B2B8422FD3102F96
:10C520002DD3F0880090002829D02E484069411C66
:10C5300008D0216989B2FBF72BFE04E00820F8BD82
:10C540000E20F8BD60692169401E89B24843244B22
:10C5500000999C6879430B19984210D30120000779
:10C56000006980B2884208DA012000070069394674
:10C5700080B2FBF70DFE002901D1B80701D00720DA
:10C58000F8BD17484388012B1CD0074616486C603D
:10C5900019012B600D186C6032684250B0882881F8
:10C5A000F0886881B188F0880022414301200007AB
:10C5B000521C066992B2B6B2B14205D90669B6B24A
:10C5C000891B02E00420F8BD00210669B6B23419C7
:10C5D0000029EDD1BC605B1CAA817B800020F8BDE6
:10C5E000FC20002000100010E8280020F8B50C46C0
:10C5F0001A490978002907D0002C07D0002805D057
:10C600000168002917D103E00820F8BD0E20F8BD0D
:10C6100013490D68002D0ED04E890D8949686E436F
:10C62000761841688E4206D9002A04D0954202D37A
:10C63000D618AE4201D90720F8BD25461D43AD07E7
:10C6400001D1890701D01020F8BD0093134601469F
:10C6500022460220FEF7F8F9F8BD0000FC20002079
:10C66000E8280020F8B500216B4D8C46A9780129F7
:10C670002BD10021A97069494B7829464978082BAC
:10C6800024D002462E463078142704467C43A41951
:10C69000022A3CD0032A18D16079401CC0B26071D4
:10C6A000241D03287ED0FEF755F900280DD011284F
:10C6B0000BD00246A068217803015948C55860880C
:10C6C0000090204608302369A847F8BD02281AD0F8
:10C6D000524A002010700029F7D0FEF73BF90028DD
:10C6E000F3D01128F1D00246287814214843441988
:10C6F000E068217903014A48C558E0880090204647
:10C700000C306369E0E7454A00205070E3E7434A94
:10C7100095886D1CAEB296802579241D022D05D119
:10C720006788B202BA4201D3012200E00022964695
:10C73000052D01D1072B03D00022042D02D003E0E8
:10C740000122FAE7072B03D00027042D02D007E0CF
:10C750000127FAE76488B502A54201D3002B49D02E
:10C7600000233A431A4373461A4325D02B4A002428
:10C77000294B54709480491E5970411CC9B21970DC
:10C780000A2901D30A39197014214843C518EB68E6
:10C7900029791E01224B28469E59EB886246009358
:10C7A0000C3000E028E06B69B0472C71EC802C6104
:10C7B00001206C61E8602C81174C6078002884D0DF
:10C7C000A078002881D1FEF7C5F8002884D0112870
:10C7D00086D002462078142148430419E068217964
:10C7E00003010F48C558E088009020460C3063696B
:10C7F000A847F8BD0123B4E728781421484340191D
:10C80000C36801791C01064B0D221C59C388009393
:10C8100043690C30A047F8BD1C280020FC200020F4
:10C82000E8280020F8B50C461A490978002907D0F5
:10C83000002C07D0002805D00168002917D103E09B
:10C840000820F8BD0E20F8BD13490D68002D0ED04C
:10C850004E890D8949686E43761841688E4206D923
:10C86000002A04D0954202D3D618AE4201D907203F
:10C87000F8BD25461D43AD0701D1890701D0102021
:10C88000F8BD00931346014622460520FEF7DCF86A
:10C89000F8BD0000FC200020E828002010B5164854
:10C8A0001649408888420DD0132176DF002803D036
:10C8B00000221146FCF7AAFA0020FDF739FE0028F5
:10C8C0000CD10FE074DF002803D000221146FCF7E2
:10C8D0009DFA0020FDF72CFE002803D0002211460F
:10C8E000FCF794FAFDF7FAF9002803D0002211466C
:10C8F000FCF78CFA10BD000000200020FFFF0000B4
:10C9000008B50A20024600900E4B0F49002000F0A7
:10C9100005F9002803D000221146FCF777FA0B49ED
:10C920000A7810464A78120210438A78C9781204AD
:10C9300010430906084300BA001201B20448FCF78C
:10C9400069FF08BDC2260020B8260020C6260020A8
:10C950000426002010B508461146C046C04610BD4A
:10C96000002803D00249C860002070470E2070479D
:10C9700068210020002901D10720704730B48C07BE
:10C9800002D0072030BC7047064CA1606280064987
:10C99000636010DF0028F5D10120207016202EDF03
:10C9A00030BC70476821002055C90100002803D021
:10C9B00002490861002070470E207047682100205E
:10C9C0007047000070B500240D46002806D00022F4
:10C9D00011461046FCF71AFA256270BD004CFBE7C1
:10C9E000F8280020002901D10E207047F8B5002654
:10C9F0000D46002806D00022344611461046FCF7AA
:10CA000005FA1CE0EA7E414C41490320002A01D08E
:10CA1000012300E000236A46137021602071A660A4
:10CA2000A681E6812661A682E68266832683267732
:10CA30002662204620300671467111788171297C6A
:10CA400001200246334F8A40BA60296903228B00D5
:10CA500031495B181A602B7C9840B8606868800088
:10CA600040180260E868800040180260A8688000F2
:10CA700040180660287C2077686821683F15C9192E
:10CA80008860E8682168C919C860A8682168C91960
:10CA9000086128682168C9194862A87E697E40003B
:10CAA00089000843297E08432168C9194865206820
:10CAB000FF30013086600420205632DF002803D08A
:10CAC00000221146FCF7A2F90420297D205633DF0D
:10CAD000002803D000221146FCF798F9266221684D
:10CAE0000420032212028918486020562EDF0028F5
:10CAF00003D000221146FCF789F921680120C919E9
:10CB000008600220203420710020F8BDF8280020A1
:10CB1000003000400005005000070050FFB589B00C
:10CB20000025129F1646002813D000222C461146DD
:10CB30001046FCF76BF900206946069025460874FC
:10CB40002035A879002806D004A836DF002807D1B0
:10CB50000AE05C4CEFE7042020562FDF002803D0CA
:10CB600000221146FCF752F92879022801D0112041
:10CB700092E0B74201D9384600E0304600287DD027
:10CB800001212971002161836971208308960A9827
:10CB9000264602900836301D0790801C0390002E18
:10CBA00004D1002211461046FCF730F907980028FE
:10CBB00004D1002211461046FCF728F903980028FA
:10CBC00004D1002211461046FCF720F9029830608B
:10CBD0000298002800D0089807990880039800213F
:10CBE000018008970C98274602901037381D861C44
:10CBF0000790002F04D1002211461046FCF706F9D9
:10CC00000798002804D1002211461046FCF7FEF8D0
:10CC1000002E04D1002211461046FCF7F7F80298C6
:10CC200038600298002800D00898079908800020F2
:10CC30003080207F012181402348C160002C04D135
:10CC4000002211461046FCF7E1F8A068A289E189AC
:10CC5000002803D0914201D2415C00E00021266807
:10CC600005231B02F618F161E189491C89B2E181B3
:10CC7000268B8E4211D9002805D000E00BE09142AE
:10CC800001D2405C00E000202168C918C861E08939
:10CC9000401CE08101E007200690A879002805D01B
:10CCA0006846007C37DF002805D108E004202056C4
:10CCB0002EDF002803D000221146FCF7A7F80698C3
:10CCC0000DB0F0BDF828002000050050002070478E
:10CCD000FFB581B00E46644C049B0399054662780B
:10CCE000194303208E46002A03D1002910D00121C8
:10CCF0006170039A61785D4B970007297ED20A0024
:10CD00007A44127992189744820522355884940007
:10CD10000221EDE701252D0728690004800C009011
:10CD2000286987B258697743411C04D0296989B2C0
:10CD3000FBF72EFA00E068692969401E89B2484372
:10CD40003946009A29DF002861D102215EE0304691
:10CD500028DF00285BD10399002901D0032155E089
:10CD60000499002904D1297804294CD107214DE0E8
:10CD700004214BE05869411C06D0012109070969CB
:10CD800089B2FBF705FA02E00120000740690121A2
:10CD900009070A69401E92B2096950438BB2734376
:10CDA00001461846039A29DF002830D1049900294A
:10CDB000DED12978042928D025E05869411C06D005
:10CDC00001210907096989B2FBF7E2F902E00120B4
:10CDD00000074069012109070A69401E92B25043C9
:10CDE0006A8809698018C01989B271438918CB19FA
:10CDF00001461846049A29DF002800E007E006D122
:10CE00002978042901D0052100E00621617005B0D0
:10CE1000F0BD012000070069698880B27043C01925
:10CE20008A08296929DF0028F1D171460029ECD14F
:10CE30009CE701252D07286986B25869411C04D05A
:10CE4000296989B2FBF7A4F900E068692969401EE5
:10CE500089B248433146FBF79BF928DF0028D6D139
:10CE60000721617005B0F0BDFC200020001000100B
:10CE700010B50446FFF7F6FB022C01D0032C07D1B6
:10CE800004480178002903D000210170FBF732FF2C
:10CE900010BD000000200020F0B5002095B0C04378
:10CEA000F14A0A90516908919378D4781069A342A5
:10CEB00011D05B1CDBB29370022B01D10023937065
:10CEC0001B06EA4C9B0DE358079359180902090AFF
:10CED0005161012101E0002107911191E2490F9078
:10CEE000497804914A1E0292D2B20592DE4A002984
:10CEF000D368109392680C9273D0DB490C9C4A69FA
:10CF0000039249790D910E930599CA000E9955180F
:10CF10002B786978994258D0182159436A685B1C6C
:10CF20005118AA78DBB29A4200D100230A78022A6B
:10CF300002D0032A46D13BE0496824220E465143E1
:10CF400009198C46097D00293CD002460146471C40
:10CF50002AD0B14207D00A46242151430919096A4F
:10CF60004F1CF6D120E0002F1ED08A420CD124267F
:10CF700070430019006A461C06D1BD4F0126BE60F1
:10CF80000026039601260D962426714309194F6841
:10CF90007243096A121911624A1C05D024225143B6
:10CFA00009194A68D2194A6000216246117509E0E0
:10CFB000411C07D000212422504300190175006A4A
:10CFC000421CF8D169789942A6D1059A511EC9B27E
:10CFD0000591002A98D1A4490861039848610D98E9
:10CFE0004871A14802690F98824201D0012000E0F7
:10CFF00000200F901198002826D00024089E079941
:10D00000521C1FD0984A242015690C9B6843C018F5
:10D0100043688B4202D9591A416013E0C91A1C199E
:10D02000002343600375036A13610269002A07D075
:10D0300037193F023F0A8760C2600A9A02620A9566
:10D040005B1CDFD101200F900A9811908648029A4C
:10D05000006909900499D2B20492002973D08249E0
:10D060000C9A4B69039349790D9110990E9104998B
:10D07000CB000E995C1886E01199491C06D0119FCF
:10D080002421794389180B6A119323E0217818230E
:10D090004B436568491CC9B2EB182170A578A942B9
:10D0A00001D1002121705F68242179431D788918FE
:10D0B000012D6CD10D7D002D69D19D688D60DD68DD
:10D0C000CD601D690D615B69CB610D9B002B01D0AB
:10D0D00000238B608D68039B664EEB1A1B021B0AB4
:10D0E000B34203D2CD685B194B600AE0039B5B1B24
:10D0F0001B02CD681B0A9D4201D9EB1A00E00023F8
:10D100004B6000238B60CB6001230B759B1E0B6271
:10D110002421794389188C46411C15D061464B68FF
:10D1200024214143891849688B420FD82421414367
:10D1300089184968CB1A2421414389184B606146FC
:10D14000086238461FE02FE038461CE001460A908E
:10D1500002E00A91296A9B1B4D1C0BD024254D43EC
:10D16000AD186E689E42F4D324264E43B6187668F6
:10D17000F61A6E6065466B60634619620A9924234D
:10D18000594389180F621199491C00D074E721781E
:10D1900063789942FAD104994B1EDBB204930029BB
:10D1A00000D064E7304908612F4809990069884236
:10D1B00002D10F99002952D02B4D2F49421C3AD051
:10D1C000242358430C9B2A46C01846682B484468C1
:10D1D0005769E01B05022D0A1079ED1C002812D1B9
:10D1E0000120274A0004506048602649400008603A
:10D1F000254908601E49012008602F20FAF79CFF8E
:10D20000194901200871B54200D23546E8190002DB
:10D210001E49000A086019494968001B091B0902D8
:10D22000090A0002000AC91C814218D901201849C4
:10D230004004086013E00124164A60041060104A9C
:10D240004010906088600A4E74602F20FAF774FFD7
:10D25000B46000242F206C61FAF76EFF2C71024934
:10D260000020487115B0F0BD44210020602100204D
:10D2700000100140FFFF7F00001301400015014036
:10D280004013014080E200E000E100E04015014071
:10D2900000E200E080E100E038B51549154A488811
:10D2A00090420FD04A78144C521CD2B24A70237B61
:10D2B000934208D3114975DF002803D0A1690029E2
:10D2C00000D0884738BD00254D70217C002907D04B
:10D2D0003B2176DF002803D0A169002900D08847D0
:10D2E00061690029EED068460570884738BD0000A6
:10D2F000D4200020FFFF000000280020DC200020B8
:10D30000FFB585B005460220864608980E9C02911E
:10D31000009020780190002728883E4600283FDDB5
:10D320006868B1004018028869460A8240884882CD
:10D33000002203A904A865DF00285CD16846017BB0
:10D34000714520D1002F01D0002200E00222207878
:10D35000891841181F294DD8002F07D1401CC0B291
:10D36000411C009B029A21701A54012721780098D1
:10D370000A1803A904A865DF00283CD16946207873
:10D38000097B401820702888761CB042C8DC002F2A
:10D3900006D021780198019A081A0099401E8854F5
:10D3A000079802901020864608980E9C00902078DE
:10D3B0000190002728883E46002842DD6868B100B9
:10D3C0004018028869460A8240884882002203A9E0
:10D3D00004A865DF00280ED16846017B714523D182
:10D3E000002F01D0002200E0022220788918411885
:10D3F0001F2902D90C2009B0F0BD002F07D1401C15
:10D40000C1B2481C009B029A20705A54012721780F
:10D4100000980A1803A904A865DF0028EBD1694623
:10D420002078097B401820702888761CB042C5DC23
:10D43000002F06D021780198019A081A0099401E01
:10D440008854002009B0F0BD020200000000000076
:10D45000603201000F1801000A18010000000010DE
:10D46000FFFFFFFFFFFFFFFFFFFFFFFFFFFFFFFFCC
:10D4700003000000010000005780D294A3B2FE39DF
:10D480005F87FD3500008B221100000012000000B4
:10D4900013000000140000001100030069A4010043
:10D4A0001200030069A401001300030069A4010035
:10D4B0001400030069A4010023D1BCEA5F7823159E
:10D4C000DEEF12120000000011C0010041B901009E
:10D4D00059B8010039BA01000DC0010011B90100AD
:10D4E00055B8010009BA010009C001005DB801008A
:10D4F00051B8010001BA0100020000001CD5010072
:10D5000000200020840100009482010048D5010021
:10D5100084210020DC17000096880100310321FFE0
:10D52000FFED8C240020A8240020BF24002036A377
:10D530000065912303200207038624F442010317A8
:08D54000FFFF047A45AE010073
:04000005000180C1B5
:00000001FF
