:020000040003F7
:10C00000283C002011C403002BC403002DC40300EE
:10C010000000000000000000000000000000000020
:10C02000000000000000000000000000D5C0030078
:10C03000000000000000000031C4030033C403000E
:10C0400035C4030035C4030035C4030035C4030000
:10C0500035C403000000000035C4030035C40300EC
:10C0600035C4030035C4030035C4030035C40300E0
:10C0700035C4030035C4030035C4030035C40300D0
:10C0800035C4030077EE030035C4030035C4030054
:10C090008DEE030035C40300ABF6030035C4030086
:10C0A00035C4030035C40300000000000000000098
:10C0B0000000000000000000000000000000000080
:10C0C0000348854603F06CFB004800479DC203000F
:10C0D000283C00200648704502D1EFF3098101E0B9
:10C0E000EFF30881886902380078024A104700009F
:10C0F000FDFFFFFF7DC10300401E00BF00BF00BF6A
:10C1000000BF00BF00BF00BF00BF00BF00BF00BF37
:10C1100000BFF1D170470000056885F308884668C4
:10C120000A4AEFF305839A42304602D1084CA646EC
:10C130003047074C064D0646064FF0B4034C034DFE
:10C14000024E024FF0B40448004700000000000017
:10C15000FFFFFFFF00000021F9FFFFFF401E00BFAF
:10C1600000BF00BF00BF00BF00BF00BF00BF00BFD7
:10C1700000BF00BF00BFF1D17047000010B50C46F2
:10C18000002802D00120086010BD2168002911D0CC
:10C190001C48421A814212D03C2A0DD201223C3066
:10C1A0003C310B7803701346521C401E491E3C2B39
:10C1B000F7D904E00E200BE03C2203F0B5FA002290
:10C1C0003C21104803F0DCF80E49891E088000204D
:10C1D000206010BD70B5054600223C21094803F0DF
:10C1E000CFF8084CA41E2188884201D00B2070BDD6
:10C1F0003C220449284603F097FA2088401C2080FE
:10C20000002070BD827F00200A4610B501467148AB
:10C2100002F01AFC10BD10B501F041F810BD10B5C8
:10C220006D4C86B01ECC03946C460EC4002807D01B
:10C23000684618DF002803D00022114602F004FCF3
:10C240000F20800313DF002803D00022114602F0E4
:10C25000FBFB624B48226249082003F0F9F90028F1
:10C2600003D00022114602F0EFFB0020049005905D
:10C2700001206946087404A860DF002803D000226A
:10C28000114602F0E1FB574803F007FA002803D0FB
:10C290000022114602F0D8FB06B010BD08B5524886
:10C2A000C169B1294FD000245049032008600127FB
:10C2B0004F4DFE05AE604F480F214069890388420B
:10C2C00004D000221146104602F0BEFB01200007F8
:10C2D000006901218902884204D0002211461046DB
:10C2E00002F0B2FB44480090444B05220321002099
:10C2F00002F0F3FD002803D00022114602F0A4FB57
:10C300003A493F480C39086001F089FB01F0CCFB49
:10C3100000281CD0EE6001F0D6FB002803D00022DC
:10C32000114602F091FB20467840FFF778FF00F0BD
:10C3300043F801F0EEFB002803D00022114602F082
:10C3400083FBAE6009E001240021C161ACE7204617
:10C350007840FFF764FF00F02FF82869000DC00750
:10C36000C00F04D000202043264C07D101E001205B
:10C37000F9E7A06801F0AAFA002809D1EE6001F0FF
:10C380005FFB002803D00022114602F05DFBAE6087
:10C39000A06801F09BFA002806D001F085FB002878
:10C3A00002D1A06801F058FBBFF34F8F1749164820
:10C3B000C860BFF34F8FFEE7094A10B54832142119
:10C3C000082002F04DFB002803D00022114602F0A5
:10C3D0003BFB10BDEFBEADDEFCF70300EBF6030048
:10C3E000282F002017C20300000500405C07005002
:10C3F00000050050001000106BF30300E82C002033
:10C400000C000300003000000400FA0500ED00E01D
:10C410000321094802680A430260084802680A4387
:10C4200002600748804707480047FEE7FEE7FEE74F
:10C43000FEE7FEE7FEE7000024050040540500404B
:10C4400051C40300C1C0030023492248086070475B
:10C4500010B500F01DF8002805D021491F4848609C
:10C46000C813204988612048018CC9B201290ED126
:10C47000818C09070BD1018D0906090F042906D10A
:10C48000808D0006000F02D118490120886010BD80
:10C490001548018CC9B2012917D1818C090714D123
:10C4A000018D09060A0F03D1828D1206120F0ED0DC
:10C4B000090F012903D1828D1206120F07D003291B
:10C4C00003D1808D0006000F01D0002070470120AD
:10C4D000704700000024F400002C0020DFFF07C09C
:10C4E00000050040006C0040C00F00F00006004056
:10C4F00030B585B0002822D00388FE4CA34220D05E
:10C50000FD4B1B78002B1CD0FB4B10255B1C1D70BA
:10C510005970002401259A70032269460A8200940A
:10C52000019402940394028A0A808D708C8004A97D
:10C530000291039300886946A6DF05B030BD0E2046
:10C54000FBE70820F9E7F0B58BB004460227684600
:10C550000773002609968784C68408A80A900D46AA
:10C56000A18A208809AAA5DF002804D0E16A002951
:10C570001AD0884718E06846008CC007C00F13D057
:10C5800068460682208803A9A8DF002813D1A97E67
:10C5900028461B3001220B0003F014F909460F1C3A
:10C5A0002227292C442E4600FF20FE3069460882AF
:10C5B000208803A9A8DF0BB0F0BD6B461E700BE00E
:10C5C00006221EE069460A71029027E02046904745
:10C5D0000020F0E76B461A702B8B022BF2D2EFE7AC
:10C5E000684607706946A26AF0E7032000E004206D
:10C5F000694612E00520FBE7298B032905D20322B7
:10C6000008212046FFF774FFD5E741780278080239
:10C6100010436946888003D006200870A26AD5E7D7
:10C620000720FAE70920E3E70322EAE730B585B0FF
:10C630000D46040038D0002D36D06868002833D06D
:10C640000020C043AD4B20800FCB049301AB07C348
:10C65000AB486946088001A8811E63DF002822D10B
:10C66000221D69460120A0DF00281CD16846807881
:10C67000A071204600F0CEF8002814D1204600F02A
:10C6800059F900280FD12946204600F004F9002866
:10C6900009D16868A062A868002800D0E0629649C5
:10C6A00001200870002048E70E2046E73EB500282C
:10C6B00028D0002926D0826A002A23D00A88102A8E
:10C6C00021D0112A30D0502A1FD0512A1AD10A461F
:10C6D0000446891D0878022814D14888238A984284
:10C6E00010D1907A04280DD006280BD0052809D047
:10C6F0002046891CFFF727FF002803D0E16A0029A4
:10C7000000D088473EBD898810E0CB8802899342DB
:10C71000F8D108226B461A708A7F1A712031029173
:10C72000826A694690473EBD0021C94301803EBDF3
:10C73000F0B585B00A4605002DD028886D4988429D
:10C740002BD06D480078002827D06B4C1020641C3B
:10C750002070072060700127A770032168460182BE
:10C760000026E11C104600F04CF801466846008A9D
:10C770000918684601820096019602960396298A56
:10C7800001808770868004A80394029028886946F7
:10C79000A6DF05B0F0BD0E20FBE70820F9E7F0B5F5
:10C7A00085B00A46050028D028885249884226D0FC
:10C7B00051480078002822D04F4C1120641C207072
:10C7C0000127684607820026611C104600F019F810
:10C7D00001466846008A091868460182009601965B
:10C7E00002960396298A01808770868004A80394A4
:10C7F000029028886946A6DFCBE70E20C9E708200B
:10C80000C7E70870020A4A70020C8A70000EC870EE
:10C810000420704730B58FB005461C21684602F0F1
:10C820009CFF694608780421084369460870002483
:10C8300001940394049405940694A87908A9887037
:10C840002F486946801C0884601C00070794000F6D
:10C850000C77103048778A7FF9200240F720921C2D
:10C860000240EF200240012002438A77142109A8E8
:10C8700002F073FF08A8099007A80A9069468C8502
:10C880001420CC8508860D942B46A888083309AA65
:10C89000A2DF0FB030BDF0B58FB00F4605461C21AA
:10C8A000684602F05AFF684601780226314301705B
:10C8B000002401940394049405940694A97908A88B
:10C8C00081700F496846091D0184601C0107090F2A
:10C8D0006846103107940177002001466846417789
:10C8E000817FF9200140F720891C0140EF200140A1
:10C8F000012007E0FFFF0000042C00200CF80300DB
:10C9000030150000014368468177142109A802F020
:10C9100024FF08A8099007A80A9068468685C48560
:10C9200006860D972B46A888203309AA6946A2DF00
:10C930000FB0F0BD30B58FB005461C21684602F03F
:10C940000CFF694608780821084310221043694605
:10C950000870002401940394049405940694A87923
:10C9600008A98870144869460884601C0007079469
:10C97000000F0C7710304877887FF9210840F721A5
:10C98000801C084010430121084369468877142120
:10C9900009A802F0E2FE08A8099007A80A906946D3
:10C9A0008C851720CC8508860D942B46A8881033DB
:10C9B00009AAA2DF6DE7000031150000FFB583B0C2
:10C9C000074600200C9C8646267805463AE07868A3
:10C9D000A90041180A88684682804988C1800022DF
:10C9E000694601A865DF002810D1684601780598DE
:10C9F000814226D17046002801D0002200E00222A8
:10CA00002078891841181F2902D90C2007B0F0BDE1
:10CA10007146002908D1401CC0B2411C069B049AF3
:10CA200021701A5401208646217806980A18694612
:10CA300001A865DF0028E9D1694620780978401807
:10CA400020706D1C3888A842C1DC7046002804D0D4
:10CA500020780699801B401E88550020D6E7F8B53F
:10CA60001546069C1E46074602220094FFF7A6FFC5
:10CA7000002806D133461022294638460094FFF795
:10CA80009DFFF8BDF7B582B0002605461670007808
:10CA90001446002805D02846039900F0CAF806007D
:10CAA00008D1A87800281ED02078039F001D1F28D9
:10CAB00002D90C2005B0F0BD684679DF0028F9D115
:10CAC00021780322481C20707A5421781922481CAE
:10CAD00020707A542078C1196846008800F0A4F8C4
:10CAE000217840182070E8780223002810D02078A0
:10CAF000039A411C2170135420780399471C01228A
:10CB000027700A542078EA78471C039927700A5442
:10CB10006868002815D00021415620788C460246CE
:10CB2000C01C03991F28C4D8501C20708B54227835
:10CB30000A23501C20708B5420786246431C2370BB
:10CB40000A542889002809D0284600940622022188
:10CB50000830039BFFF783FF0600ABD1288A00282B
:10CB600009D028460094072203211030039BFFF7C9
:10CB700076FF06009ED1288B002809D02846009415
:10CB8000152214211830039BFFF769FF060091D18D
:10CB9000286A002805D02246039900F07FF8060095
:10CBA00088D1686A002805D02246039900F0B5F8BC
:10CBB000060084D12C20405D002806D0224628465D
:10CBC000039900F0DCF80600C7D1304672E770B573
:10CBD0000C4692B000216A46117007251171002899
:10CBE00009D0C17849070CD502A9FFF74BFF0028EF
:10CBF00008D102AE00E00026002C0ED0E07800281C
:10CC000002D0284612B070BD01AA0AA92046FFF73B
:10CC100039FF0028F6D10AAA00E00022684603790D
:10CC20000178304672DFEDE70870000A4870022094
:10CC30007047F8B514780746A01C15460E461F2805
:10CC400003D87878801C1F2801D90C20F8BD1D203E
:10CC5000001B80B26946864608803019801C7DDF43
:10CC60000028F3D13878022805D16846008870453D
:10CC700001D8092107E078780821002801D0704503
:10CC800001D968460088421C3255641CE2B2B15496
:10CC90002978801C081828700020F8BDF8B50D46CA
:10CCA00011780646881D14461F2801D90C20F8BDAE
:10CCB00033880720062BFAD31927FF01BB4202D97C
:10CCC0004D4A9342F3D17288062AF0D3BA4202D970
:10CCD000494FBA42EBD1484FBB4203D0BA4201D0D0
:10CCE0009342E4D8481C052220706A54207812220E
:10CCF000411C21702A54207841193088FFF794FF95
:10CD000021784018C0B2207041197088FFF78CFF5D
:10CD10002178401820700020F8BD70B505460079D4
:10CD20000E46801C1446C0B21178821C8A181F2A35
:10CD300001D90C2070BD0A46491C2170401CB0541A
:10CD40002078FF22411C21703254207881192888D4
:10CD5000FFF76AFF21784018C0B22070AA88002A25
:10CD600009D0A968002908D0801902F0DDFC2078DC
:10CD7000297940182070002070BD072070BDF7B5DC
:10CD800082B002981446806A0F46002832D002987A
:10CD900000252030009028E00298816A0C2068432A
:10CDA0000E18217830794A1C2270C01C78542078E3
:10CDB0001622411C21703A542078C1193088FFF79F
:10CDC00033FF21784018C0B22070B288002A09D001
:10CDD000B16800290ED0C01902F0A6FC2078317984
:10CDE000401820706D1C0098EDB2007BA842D3D88B
:10CDF00000205FE607205DE6FFFF000038B57B49B5
:10CE00007B4A488890420FD04A787A4C521CD2B262
:10CE10004A70237B934208D3083175DF002803D082
:10CE2000A169002900D0884738BD00254D70217CBC
:10CE3000002907D03B2176DF002803D0A169002913
:10CE400000D0884761690029EED0684605708847A0
:10CE500038BD70B5054601461C22664802F064FCE8
:10CE6000624C002626702968002907D00822A018E5
:10CE700002F05AFC204608307ADF02E05B480830B6
:10CE80007BDF002808D1401E6080584866705A4AEF
:10CE90000021001D02F074F870BD10B553484068C1
:10CEA00002F009F910BDF8B55048103000F090F8C4
:10CEB00000264E4D4F4C002807D0616900291BD039
:10CEC00001206A461070684615E02878002805D0D1
:10CED0006169002910D0684606700CE06878002867
:10CEE0000CD0A1680022686802F0A8F8002803D0DE
:10CEF000A169002900D088472E70F8BD6168F1E76C
:10CF0000F8B53C4C02880027384DE689102A18D025
:10CF100029464968112A21D0122A2DD0502A0FD132
:10CF2000C288801DB2420BD1028B022A08D1C27E78
:10CF3000837E10021843C007C00F13D0FFF7B3FF62
:10CF4000F8BD8188698001462848082216311030D2
:10CF500002F0EAFB6F70002EF0D0F8BD0020C04355
:10CF600068806F70084602F0A6F80028F5D0A16925
:10CF70000029F2D08847F8BD811D1C4808221030D6
:10CF800002F0D2FBDAE7F8B501461848082208306B
:10CF900002F0CAFB154808307ADF04000DD11348AF
:10CFA000103000F015F80125002808D0114841691B
:10CFB000002902D06846057088472046F8BD0B4E10
:10CFC000357031460831708875DF04467570F4E7B6
:10CFD0004188064808300288914204D34088814243
:10CFE00001D8012070470020704700000C2C002061
:10CFF000FFFF0000C0300020FDCD030031B5054C1F
:10D0000004E0401E00902046FFF776F800980028C4
:10D01000F7D138BDE703000018225043FC4A002135
:10D020008018017181604161012281610261C160EA
:10D030007047FFB581B0F74C049B039A05466678AC
:10D040001A4303200092002E03D1002A0ED00122A1
:10D0500062706778039A0126360792003B0002F05F
:10D06000B1FB072707162940526127000222EFE78C
:10D070007069326992B25043326933691204920C7A
:10D080009BB2594329DF002812D102210FE0084644
:10D0900028DF00280CD10399002901D0032106E0E4
:10D0A0000499002916D12978042946D017E0617027
:10D0B00005B0F0BD7069326992B25043326993B2E3
:10D0C0004B4301461846039A29DF0028F0D1049902
:10D0D000002901D00421EAE72978042920D005217C
:10D0E000E5E773693069366980B2434368681B18A5
:10D0F0009B18B6B24E43301880181946049A29DF9F
:10D100000028E9D0D4E7306980B2484369688018C4
:10D110008A08696929DF0028CAD1009900290CD042
:10D120000621C4E77069316989B24843316989B21F
:10D1300002F0E4FA28DF0028BAD10721B7E7F8B5F2
:10D14000B34918230A780F205A435418B149227959
:10D150006669241DCF68022A1BD001252D07042AE9
:10D160002AD0052A5BD1286981B2304602F0C6FA7E
:10D170000146A36828699A1980B24843101A8208A8
:10D1800060681818861928694B1C80B25843801BA8
:10D1900034E0B80262686169121A0918A36830188D
:10D1A000181801239B029A4202D2920829DF31E02B
:10D1B000FF22013229DF2DE0E26895491420504317
:10D1C000F4314018001D0BC8B04203D160685943C8
:10D1D000814218D0022A16D0286981B2304602F066
:10D1E0008DFA0146286980B24843301A82082869BE
:10D1F0004B1C80B2584363689B19C01A83082046B1
:10D20000FFF717FF06E0286981B2304602F076FA90
:10D21000C01928DF002802D17D4901228A70F8BD9B
:10D22000F8B57B4C069E65780A2D1FD027787D19AE
:10D23000EDB20A2D01D30A3DEDB218277D432D1919
:10D24000287100206871AA6103C9EE60AB60696152
:10D250002861A1780020002904D1FFF770FF112870
:10D2600000D100206178491C6170F8BD0420F8BD30
:10D2700038B50C46E2680978022A0CD014235A43C8
:10D28000634BF4339D5862680092024620460C308E
:10D290006369A84738BD5F4A10321568F3E7F8B5EF
:10D2A000074600205A4E8646B07801281ED100203D
:10D2B000584BB0705A78082A19D03446257818216E
:10D2C00069430C19022F20D0032F0FD16079401C25
:10D2D000C0B26071241D032869D0FFF730FF002819
:10D2E00004D0112802D02146FFF7C2FFF8BD022F5B
:10D2F00009D0187000F0B2FA0028F7D0317818225F
:10D300005143891958E05870F4E74249CB685B1CD7
:10D31000CB602679241D022E05D167689902B94297
:10D3200001D3012100E000218C46052E01D1072AFE
:10D3300003D00021042E02D003E00121FAE7072ADE
:10D3400003D00027042E02D007E00127FAE7646823
:10D350009B02A34201D3002A27D000223943114364
:10D360006246114317D02B4A29495070D060487843
:10D37000401E4870681CC0B208700A2801D30A38E1
:10D3800008701820684341187046091DFFF770FFA8
:10D390002846FFF741FE00F061FA0028A6D01C499C
:10D3A00018230A785A43511806E00122D6E730784C
:10D3B0001821484381190D20091D95E770B50025F6
:10D3C000144C1348E56065700570457085702E46F5
:10D3D0003046FFF721FE761C0A2EF9D301221207F0
:10D3E0006560516928461269491E92B25143E56051
:10D3F000A1600749F4310D608D600D61CD60054974
:10D4000010310D60888001212170607070BD0000B6
:10D41000DC300020242C0020F8B5FA4A04461078AD
:10D420000E4600282BD0002C2BD0002E29D02068AF
:10D43000002826D0012109076768086980B2874261
:10D4400023D8102F21D3A06800281ED095687843D8
:10D450004B694219096989B24B439A4215D8012197
:10D460000907096989B288420DD9012000070069BE
:10D47000394680B202F042F9002906D103E00820C3
:10D48000F8BD0E20F8BDB80701D00720F8BDDD4972
:10D49000486801281CD00F4621C61421DA4A4143AE
:10D4A0008E187560236853506168B160A168F1609F
:10D4B000A36861680022594301231B07521C1C69A1
:10D4C00092B2A4B28C4205D21C69A4B2091B02E03C
:10D4D0000420F8BD00211C69A4B265190029EDD112
:10D4E000BD60401C326178600020F8BD30B5C54B8E
:10D4F0001B78002B07D0002807D0002A05D004682D
:10D50000002C12D103E0082030BD0E2030BDBE4BF0
:10D510001D68002D09D04568986841436918DD6889
:10D52000454358682818884201D8072030BD146048
:10D530000020516030BDF8B50446B2481E46007860
:10D5400015460F46002807D0002F07D0002C05D025
:10D550002068002817D103E00820F8BD0E20F8BD90
:10D56000A948016800290ED0C268816840684A4312
:10D5700010186268904206D9002D04D0A94202D347
:10D58000A819884201D90720F8BD384600F060F993
:10D59000002811D0304600F05BF900280CD06068FC
:10D5A00000F056F9002807D02B463A4621460220C3
:10D5B0000096FFF735FEF8BD1020F8BDF8B504461B
:10D5C00090481E46007815460F46002807D0002FC9
:10D5D00007D0002C05D02068002817D103E00820D0
:10D5E000F8BD0E20F8BD8848016800290ED0C26839
:10D5F000816840684A4310186268904206D9002D3D
:10D6000004D0A94202D3A819884201D90720F8BD45
:10D61000384600F01DF9002811D0304600F018F906
:10D6200000280CD0606800F013F9002807D02B46C2
:10D630003A46214605200096FFF7F2FDF8BD10207E
:10D64000F8BDFFB56F4881B000781F4616460D46FD
:10D65000002808D0002D08D00198002805D028689F
:10D66000002817D103E0082022E50E2020E5664CB3
:10D67000206800280ED0E168A068626841438918DC
:10D680006A68914206D9002E04D0B04202D3F11943
:10D69000814201D907200BE5019800F0D9F8002854
:10D6A0001BD0384600F0D4F8002816D0686800F087
:10D6B000CFF8002811D068683246C119019802F0ED
:10D6C00033F8009628681421484324580022032187
:10D6D0002846019BA0470020EAE41020E8E4F8B5C2
:10D6E000054648480F460078002805D0002D05D093
:10D6F0002868002821D103E00820F8BD0E20F8BDDD
:10D70000414C00262068002817D0A168E0684843F3
:10D7100061684118686881420FD900F099F80028C3
:10D720000DD0296814225143091968684A6889682C
:10D73000801A01F0E3FF002903D00720F8BD102074
:10D74000F8BD3B460022294604200096FFF768FDFD
:10D75000F8BD2C490978002907D0002807D02A49AC
:10D76000F4394978016000207047082070470E2086
:10D770007047244A1278002A0DD000280DD00029C5
:10D780000BD00268002A08D01E4A10321368002B02
:10D7900005D004207047082070470E2070470223F0
:10D7A0000B600068106000207047F8B5044615480B
:10D7B0001E46007817460D46002807D0002D07D0DA
:10D7C000002C05D02068022820D103E00820F8BDF5
:10D7D0000E20F8BD0B4810300068002816D008460F
:10D7E00000F036F8002813D0304600F031F8002859
:10D7F0000ED03B462A46214602200096FFF710FD38
:10D80000F8BD0000242C0020D03100200720F7E7CD
:10D810001020F5E708B51A4A1278002A05D000282A
:10D8200005D00268022A11D103E0082008BD0E20AD
:10D8300008BD134A10321268002A07D00B46002296
:10D84000014604200092FFF7EBFC08BD072008BD4D
:10D85000800701D0002070470120704710B50949AA
:10D8600000204A78002A09D08978002906D1FFF7DC
:10D8700066FC002802D0112800D1002010BD000055
:10D88000242C0020DC30002010B5BA480378012B8E
:10D8900002D1022900D10170100003D000221146EC
:10D8A00001F0D2F810BD10B5B24C48DF002803D00B
:10D8B0000022114601F0C8F801F05EF92078022834
:10D8C00003D0032801D00428EFD110BD38B500687B
:10D8D000401C19D00024684600F056F900980178E1
:10D8E000012910D1418800290AD081680320000352
:10D8F0008068002201F044FD00994988814201D1ED
:10D90000012400E00024204638BD10B504469948A3
:10D910001C21001DFFF7E3FE002803D00022114662
:10D9200001F092F8934800231C222146001DFFF7C6
:10D9300002FE002803D00022114601F085F810BD38
:10D940000FB4F8B5684600F01FF96846027E418BB7
:10D950000123884CFF258848002A12D0012A16D0BE
:10D96000032A2AD00021022A36D0052A46D0042ACA
:10D970004ED0062A01D104202070F8BC08BC04B0A7
:10D9800018474180099981600370057110E041805A
:10D99000089A07998918099A89188160A521017048
:10D9A00005710799C1600899426101610A99816115
:10D9B00023707148FFF7A9FFDFE700990A7802702A
:10D9C0004A88428089688160AA2101710799C160F3
:10D9D0000899016109990BE0009A1678A52E09D0E3
:10D9E000067056884680926882600571C160016148
:10D9F0004161DDE7418081600570F6E700F0D2FC0F
:10DA0000002803D00022114601F01EF80320B3E7DE
:10DA1000418081600570009909790171C9E70EB5EF
:10DA2000564800901C20019001200290FFF7C6FC90
:10DA3000002804D14F496846091DFFF7EDFC0EBDD3
:10DA400010B500F0B6F9002805D100F090FE0446AC
:10DA5000FFF729FF204610BD70B511DF002803D065
:10DA60000022114600F0F0FF454900200A68444BAF
:10DA7000012180330C468440144204D0C506ED0ECB
:10DA80000C46AC401C60401C2028F3D30324240324
:10DA9000A06813DF002803D00022114600F0D4FF55
:10DAA000A06800F077F870BD08B5684600F06CF823
:10DAB00000980178A52904D00079AA2801D0002077
:10DAC00008BD012008BD10B500F06DFB002803D192
:10DAD00000F049FB00281BD06420FFF78FFA00F00C
:10DAE000E8FA002803D00022114600F0ADFF00F054
:10DAF0005AFB002803D00022114600F0A5FF00F0D9
:10DB000012FB040003D00022114600F09DFF2046C6
:10DB100010BD00B587B014221A4901A801F004FE17
:10DB20000598009001A80FC8FFF70AFFFFF7BBFE9A
:10DB3000002007B000BD10B50E4988B00446002390
:10DB40001C22091D6846FFF77CFD6846007820709E
:10DB50006846408860800298A0606846007920711D
:10DB60000398E06004982061059860610698A061C0
:10DB700008B010BD3C2C0020E431002089D80300FF
:10DB800000E100E01CF8030001490160704700005B
:10DB900000FC030010B5FEF7BFFA10BD70B5FA4CDB
:10DBA0001E4660781546022902D0042916D108E0E5
:10DBB000052813D1A369002B10D032462946042032
:10DBC0000BE002280AD1F1484068804703206070CA
:10DBD000A369002B02D0324629469847280003D07B
:10DBE0000022114600F030FF70BD00B5E64987B055
:10DBF000012008700520694608710598009001A869
:10DC00000FC8FFF79DFE07B000BD10B5DE4C2078B1
:10DC1000002801D0082010BD206901F04CFA00282E
:10DC200003D00022114600F00FFF0F2100228904CB
:10DC3000206901F003FA040003D00022114600F02D
:10DC400003FF204610BDD04910B5CF4824314161B3
:10DC500002214170C1682430FFF7DCFD002803D0A9
:10DC60000022114600F0F0FE10BDC74910B5C648AD
:10DC70001C314161022141700320000380680F21A3
:10DC80008903081A4108C0481C30FFF7C3FD00286B
:10DC900003D00022114600F0D7FE10BD704700B53A
:10DCA00087B01422BA4901A801F03EFD0598009002
:10DCB00001A80FC8FFF744FEA5E7B449002050397A
:10DCC0004A680321090389688A4208D9511A880AD7
:10DCD00080028905890D02D0012189024018704710
:10DCE00000B587B0012168460171A7488188684660
:10DCF000C1800320000380680590A4485038416823
:10DD0000029181680391C0680490059800900A46CA
:10DD1000049B02990198FFF713FE002073E730B5CA
:10DD20009A4C9948503C87B02430E168FFF772FD67
:10DD3000002803D00022114600F086FE9248E268D7
:10DD40001C30416800230830FFF72FFD050012D179
:10DD5000142101A801F001FD0021684601718A48E3
:10DD600081886846C180E06804900598009001A809
:10DD70000FC8FFF7E5FD284607B030BD00B587B0F6
:10DD8000032168460171804881886846C1807F48C8
:10DD900050384168029181680391C06804900598E9
:10DDA00000900A46049B02990198FFF7C9FD0020E4
:10DDB00029E73EB5764A6B46143207CA07C3724D4F
:10DDC0000024AC702946AC8024316846FFF7D1FCB2
:10DDD000002801D06C703EBD03206B4900038068B1
:10DDE0002431486024390A46526ACA610F218903E6
:10DDF000091A490840186449664A1C31486062485B
:10DE00000021103001F0BCF8002803D00022114698
:10DE100000F01AFE0F2100228904286901F00EF992
:10DE2000002803D00022114600F00EFE0120AC6055
:10DE3000687000203EBD54498861704770B54268E3
:10DE400052481468536891685038D268046043603F
:10DE5000C26081600078440701D5840705D19C0722
:10DE600003D18C0701D1940701D0062070BD5B1847
:10DE70009A18454D0F239B02EA60994213D84649F0
:10DE8000464B424CC60709D08868181A90420AD3FC
:10DE9000434820604348606043480FE08968591A4E
:10DEA0004908914201D20C2070BD4049216040498F
:10DEB0006160800701D53F4800E03F48A060687876
:10DEC000012802D00826304670BDFFF79EFE0600EE
:10DED000FAD12168E8688847F5E770B5050004D0F5
:10DEE000287A800703D0102070BD0E2070BD264C0C
:10DEF0006078032803D0042801D0052801D0082029
:10DF000070BD6868E1688600A0688019884204D9FD
:10DF10000020C043A0600C2070BDFFF776FE0028F3
:10DF2000FAD1A9683246A3686069FFF73EFC002871
:10DF3000F2D1A1688919A160E2689142ECD0092070
:10DF400070BD10B5104C0820A168002900D010BD8C
:10DF500061780429FBD10D48A178403801F02EFAF0
:10DF6000002802D00021A17010BD0521617010BDF4
:10DF7000F8B5054C0746607803281FD004281FD049
:10DF800008252846F8BD0000482C0020503200200B
:10DF900030F80300EBDB03000030000000C003009A
:10DFA00047DC03009FDC0300E1DC03006BDC0300C3
:10DFB0009DDC03007DDD03001FDD03000420607095
:10DFC000A068002801D00820DCE7FFF71EFE05004E
:10DFD000D8D178688600A0788119402901D9092014
:10DFE000D0E7914AB9681018324601F09DFBA0783D
:10DFF0008019A070C5E710B58C4C6078052813D146
:10E00000E168A06888420FD106206070FFF7FDFD2F
:10E01000002808D16069E168406801F009FA002829
:10E0200001D10721617010BD082010BD10B57F48D7
:10E030004178072901D0082010BD006901F03BF8A4
:10E04000002803D00022114600F0FEFC7648403044
:10E050008068804710BD00B587B00620694608710A
:10E060000598009001A80FC8FFF76AFCCBE5F8B54A
:10E070001C4617460D46064600F0C1F8002881D020
:10E0800001200003854207D92346291B301B1A466D
:10E09000FFF7EDFF00280BD13A462946304600F045
:10E0A000B9F8002804D13A462946304600F0A7F8CE
:10E0B00068E7F0B589B06846FFF73DFD0398002892
:10E0C0002AD001210903069A4018904226D9501AF5
:10E0D00045081046039A0C46871802466800161831
:10E0E00000190790032000038068039988420DD22D
:10E0F00061190846042200F08DF800280CD1214651
:10E100000422084600F086F8002805D1BA1B2B46E9
:10E1100030460799FFF7ABFF09B0F0BD039A0698A8
:10E1200000F078F8F8E700B58BB004A8FFF703FD1E
:10E13000089800280DD0079800280CD007990A9855
:10E1400040180190002108980091800802906846CC
:10E1500018DF0BB000BD0320000380680F21890386
:10E16000091A4908ECE700B58BB004A8FFF7E3FCF7
:10E1700008980028EDD00F210798890300280CD0BB
:10E18000079A0A9801918018029003220898009239
:10E1900080080390684618DFDBE7032000038068EF
:10E1A0000A1A5208EEE730B58FB06846FFF7C3FC95
:10E1B0000398002814D001210903069A40189042C0
:10E1C00014D9501A43081046039A5C0082180019AB
:10E1D000611803242403A468039DAC4202D20E20DC
:10E1E0000FB030BD121AFFF742FFF9E703200BAB67
:10E1F00007C3039880080E900BA818DFF0E71FB53F
:10E20000032301909008039000930291684618DF61
:10E2100004B010BD1FB50123019090080390009336
:10E220000291684618DFF3E710320020482C0020E6
:10E2300008280CD004DC002807D006280FD108E0FD
:10E240000B280AD00C280AD105E0012070470220D3
:10E2500070470320704704207047042901D006202E
:10E2600070470520704770B515460A46032823D02D
:10E27000042820D1FC4C002906D0E088FB498842C4
:10E2800019D0132176DF10E0284601F036F9002876
:10E2900003D00022114600F0D7FBA069A8420AD1A2
:10E2A00001220321F248FEF723F9002803D00022BF
:10E2B000114600F0C9FB70BD01211046FFF7B8FF01
:10E2C00002460121EEE7F0B5054608790E4685B015
:10E2D00081070CD0032211462846FEF709F90028D1
:10E2E00003D00022114600F0AFFB05B0F0BDDE49BF
:10E2F0000090143101F0DAF8010011D1DA4CB16864
:10E30000009A606901F010FA009801F029F9010003
:10E3100006D120466946143001F02EF9010003D0E1
:10E32000284600F0E8FAE0E7042001900098800811
:10E3300002906069039001A8FFF7CFFD07000BD0A2
:10E34000092F10D0606901F0D8F8010002D02846EA
:10E3500000F0D1FA3946E3E73079216940182061AD
:10E360006069A061C1E73079216941182161607855
:10E370000028BAD06089401E0004000C6081B4D12E
:10E380002846FEF70CFA002803D00022114600F0C0
:10E390005BFB20896081A8E710B50022114600F0E0
:10E3A00053FB10BD10B5B04C01202070E088AF4980
:10E3B000884208D0132176DF002813D000221146AE
:10E3C00000F042FB0EE0A07800280BD074DF00289C
:10E3D00003D00022114600F037FB152000F060FA50
:10E3E0000020A070FEF759FD002803D0002211463E
:10E3F00000F02AFB002010BD70B50D780446012006
:10E40000994A2B0001F0DEF90A2B304306132057FE
:10E410005C466012FFF7EFFD0421FFF709FF02469B
:10E4200004212EE00022114600F00EFB70BDFFF724
:10E43000B9FF002803D00022114600F005FBFFF7CA
:10E44000F5FD002808D170BDFFF7ACFF002803D010
:10E450000022114600F0F8FAFFF7FDFD70BD1071C3
:10E4600088680078507170BD02201071886800784B
:10E470000128F8D1FFF765FD0221FFF7D9FE02461A
:10E4800002212046FEF734F80028CBD170BD0320CE
:10E49000107170BD12792046012A06D0022A07D0D9
:10E4A000032AF6D1FFF70FFF70BD00F037FA70BDF9
:10E4B00000F072FA70BD507088881081508170BD74
:10E4C00000205070108170BD20461169FEF730F9B0
:10E4D000DAE710B5044666488EB0817968468170E7
:10E4E00064490180302101A801F037F90221684612
:10E4F000017100218171C471012181810490002189
:10E5000001A8FEF764FB002803D00022114600F0AA
:10E510009BFA0EB010BDF0B5534C8BB0A07800281C
:10E520003ED153481821183801F017F92046504CB5
:10E53000C078183C0025012600283BD027464837E4
:10E5400000950195029510226946F81D039501F08A
:10E550000FF9002826D0F81D08900997684606751F
:10E5600009A804906846067708A806900420FFF7DB
:10E57000B0FF25700220207204A8E06028202082CD
:10E580003B486582183873DF002803D0002211460B
:10E5900000F05AFA012038494005C86032488670B8
:10E5A0000BB0F0BD0520FFF794FF26706760257261
:10E5B0002582E5E70620FFF78CFF25706560257250
:10E5C000DCE7F0B50546284C008800270122E688E4
:10E5D000A7B0172810D024DC11284FD00EDC022859
:10E5E0007ED0102808D124498004C860152000F08E
:10E5F00057F9A888E080A77027B0F0BD1C4C3034D4
:10E6000027461837132855D01428F5D1E889628D8C
:10E610000021904200D139460023A888E21D82DF04
:10E620001BE0512873D00EDC18286FD01928E3D1D5
:10E63000A8790028E0D1A770E068401EE06054D0BF
:10E64000FFF769FFD8E752287BD05528D4D1A879A5
:10E650000028D1D11321304676DF0028CCD000220B
:10E66000114600F0F1F9C7E7742C0020FFFF00000D
:10E6700074320020301500000005005080206946EB
:10E6800088803220E060162000F00AF9012301AAF8
:10E6900006A9E088AADF002803D00022114600F076
:10E6A000D3F92078002801D1FFF735FF0020C043BF
:10E6B000E080A1E70722D54910A801F035F8102223
:10E6C000E11D0CA801F030F81C22394612A801F017
:10E6D0002BF80CA80A9012A806ABCD4A852100E0C1
:10E6E0000FE0099030467FDFB7E71422C94906A83A
:10E6F00001F01AF80A9806AC00900FCCFFF720F949
:10E700007AE70021304667DFA7E700E019E0A97942
:10E71000002997D0A87A042803D0062801D005281C
:10E7200090D1022909D068460272FF2083306946E1
:10E73000888102A93046A8DF8FE702206946087267
:10E74000F3E700F0B2F888E710B50446FEF7D8FB0F
:10E75000AE4821463038FDF7A9FF2046FFF731FFCC
:10E7600010BD10B50022114600F06EF910BD70B555
:10E77000A74E00241C3E88B03470A748347103258E
:10E780000560001D0560152000F08AF8162000F0D5
:10E7900087F8A24800F079FF00287BD1A048FFF756
:10E7A0004AFB00F05DFE002874D19848FDF712FD89
:10E7B000002872D0684671DF002803D0002211467D
:10E7C00000F042F969464878401C4870002070DF2C
:10E7D000002803D00022114600F036F911206946C6
:10E7E000087207228FA102A87CDF002803D0002234
:10E7F000114600F029F900940C216846019401802B
:10E8000018214180FF2184809131C1807ADF002866
:10E8100003D00022114600F017F906206946009443
:10E820000880824801908248029078483038FDF78D
:10E83000FDFE002803D00022114600F005F91C213E
:10E84000684600F08AFF7B48019001208003029017
:10E85000009468460573C481047477480690059453
:10E860006846FEF7F6FA002803D00022114600F0B1
:10E87000EBF86749E1220878400840001040DF22A9
:10E880000C30104008700720487010208870FFF787
:10E8900042FE002008B070BDFFE70120F0709DE748
:10E8A0000121814065488160704770B5584C644DC6
:10E8B0001C3CE088A84201D10820ECE7E17800295F
:10E8C00014D05249012308223431A9DF0028E2D1B3
:10E8D0002A460C21E088A7DF5A49884204D008283C
:10E8E00002D0891C8842D6D10020D4E700231A46E2
:10E8F0001946A9DFCFE710B50A46044603211046A2
:10E90000FFF796FC024603212046FDF7F1FD0028A3
:10E9100003D00022114600F097F810BD30B505462F
:10E9200087B00020009001900290039038486A461A
:10E930001C3840791070374A0C3A1068926804907D
:10E9400068460692059008790C2807D003221CE03F
:10E950000022114600F078F807B030BD8C682046E0
:10E9600000F049F80190201D00F045F80290204683
:10E97000083000F040F8039004A8FFF75FFA002881
:10E98000EAD00121FFF754FC024601212846FDF799
:10E99000AFFD0028DCD1DFE7FEB504460879820729
:10E9A0000ED08207920F04239B1A0022154604E022
:10E9B0008E683554401CC0B2521C9A42F8D308717C
:10E9C00001200090886802900879800801906846CC
:10E9D000FFF7CEFA00280DD00221FFF729FC0246EE
:10E9E00002212046FDF784FD002803D000221146B5
:10E9F00000F02AF8FEBD10B5044600F0C6FE000285
:10EA0000E178000A0906084310BD0000A432002086
:10EA1000902C00205CF803005407005049E70300E5
:10EA200067E203004466755461726700F9E303000E
:10EA300063E70300CD0C000099E3030000050050DC
:10EA4000FFFF000002300000BFF34F8F0349024870
:10EA5000C860BFF34F8FFEE70400FA0500ED00E049
:10EA600030B5CB0008339DB293070024002B01D0B2
:10EA7000072030BD574B9A605219DA605C701C70E9
:10EA800058809980002030BDF7B5524C82B0608824
:10EA90000F4681426ED80020694608704F494E4E9D
:10EAA0004868C005C00D18D0103840B2002807DAF9
:10EAB0000207120F083A920892005118C96904E03F
:10EAC0008108474A8900891809688007C00EC1403B
:10EAD0000806850F012D01D10AE00425684636DFBE
:10EAE00002280CD0002803D000221146FFF7ACFF0B
:10EAF00022786078A188884203DA401C02E072B66E
:10EB0000F6E70020C0B2904207D06678607888426D
:10EB100001DA401C00E000206070012D0BD062B6CD
:10EB20006846007837DF022805D0002803D000228D
:10EB30001146FFF789FF2848864219D0A068F500E2
:10EB400004994151029900290CD0002F0AD0608805
:10EB50003A464643E068301800F0E6FDA068281801
:10EB6000878002E0002128188180002005B0F0BDD8
:10EB70000420FBE70920F9E70EB504E06846818828
:10EB8000029A0098904702AA01A9684600F003F88B
:10EB90000028F3D00EBD70B50E4B05241D785E78AD
:10EBA000AE4215D01D781C789E88B44201DA641CF0
:10EBB00000E000241C705C88DE686C43A4190460CB
:10EBC0009B68E800C418A4880C80185800241060C2
:10EBD000204670BD982C0020FFFF000000ED00E0F3
:10EBE00000E400E08307FF22DB0E9A408907090E4C
:10EBF000994000280BDA0007000F08388308FB480B
:10EC00009B001818C36993430B43C3617047830883
:10EC1000F7489B001B18186890430843186070471A
:10EC200070B50124F34960040860F349401088601E
:10EC3000F14940398860F14D6C602F20FDF78EFA64
:10EC4000AC60EF4D00242F206C61FDF787FA2C712A
:10EC500070BDF0B5EA4F2421BC6841430D193969F4
:10EC60004A1C09D024224A4316196B6872689342E1
:10EC700004D8D21A726029623861F0BD0A4602E0F7
:10EC80000A46396A9B1B4E1C0BD024264E4337196B
:10EC90007E689E42F4D324264E4336197768FF1AC5
:10ECA00077606B60296224214A4311190862F0BD24
:10ECB00070B5D34C2269A5681346114606E081421F
:10ECC00007D00A46242671434919096A4E1CF6D119
:10ECD00070BD002EFCD08A420CD124204343581929
:10ECE000006A2061401C05D1C44B012098600023BC
:10ECF00063616071242041434819242341685A43C9
:10ED0000006A52191062421CE2D02422504340197A
:10ED100042685118416070BDF8B5B94C2569681C4E
:10ED200035D0B848002640686169401A07023F0A9A
:10ED300019E024204543A0682A185068B84214D826
:10ED4000A3693F1A8619156A002B09D0D169906909
:10ED50009847002807D000221146FFF775FE02E011
:10ED60009169D0698847681CE3D1A178E078814235
:10ED700006D1401CC0B2E070022801D10020E07032
:10ED80009F490006800D1C310E5000F0E7F9F8BDD8
:10ED9000F8B504469A4800270169009146785CE07E
:10EDA0009748F100C2688D1851E0601C07D0944A62
:10EDB00024209268604321468018046A24E0287861
:10EDC000182141436A68401CC0B252182870A978C3
:10EDD000884200D12F708A4B516824209B68484399
:10EDE000C0181378012B34D1037D002B31D19368E7
:10EDF0008360D368C360136903615269C261804A4A
:10EE00005279002A00D087607D4B82685B69964604
:10EE10009C46D31A1A027C4B120A9A4202D2C36849
:10EE2000D21808E0724663469A1A1202C368120AA0
:10EE3000934202D99A1A426000E04760876001223B
:10EE4000C7600275921E02620846FFF702FF601C4F
:10EE5000ABD1287869788842A7D13046761EF6B2C1
:10EE600000289DD1664801690098814201D00120A7
:10EE7000F8BD0020F8BD6549002008604860886042
:10EE8000C860624940390860486045E7FEB5002027
:10EE9000C0435B4D02906869019068462E6900F09E
:10EEA00062F9074600F07CF90446002F08D002AA58
:10EEB0000199009800F0BCF90298FFF769FF06E09D
:10EEC0000298FFF765FF002801D1002C02D03046E0
:10EED00000F0D7F900206871FEBDFFB59807002447
:10EEE00081B01E4615460F4600280BD1002E09D0D2
:10EEF000FFF796FE42490A9888610F70324600205B
:10EF00008E6008E0072005B0F0BD24234343D454AD
:10EF10009B181C75401CB842F7DB24204743BB19E3
:10EF2000032048700F461846CB601946183000225F
:10EF300018232E465E43D3005B181C705C709D70D6
:10EF400058603018521C032AF5DB0020C04338619A
:10EF5000BC70FC7001242E48240504600321142099
:10EF6000FFF740FE234880380460264C0198A060DB
:10EF700003211120FFF736FE606878610020C2E7A8
:10EF800070B51F4CA568002D06D0002A06D00028B9
:10EF900004D00023247809E0082070BD072070BD4C
:10EFA00024265E43AE5D002E04D05B1CA342F7DB3B
:10EFB000042070BD242401265C432E556419617021
:10EFC000A2610360002070BD08494868C005C00DFB
:10EFD0002ED0103840B200281CDA0207120F083A6F
:10EFE000920892005118C96919E0000000ED00E094
:10EFF00000E400E080E100E0401301400010014027
:10F00000A82C002000150140FFFF7F0040110140A7
:10F0100080E200E08108C74A8900891809688007F2
:10F02000C00EC1400806800F012803D0032803D07A
:10F03000022070470020704701207047FEB504464B
:10F04000BD48174682680D46002A0CD001788C42D4
:10F0500001D2052D01D20720FEBD214624235943AC
:10F06000535C012B01D00820FEBD88184078012890
:10F070001DD00026FFF7A8FFC000AF490190C96866
:10F080004018694600F043F9002812D001210170B0
:10F09000AA49446049680830E2C0A7490198C96894
:10F0A00041180098487000F059F80020FEBD2E4627
:10F0B000E0E70420FEBDF8B59F4D0446A86800288F
:10F0C00009D029788C4201D30720F8BD242161435F
:10F0D000405C012801D00820F8BDFFF775FFC6008D
:10F0E000E8686946301800F012F900280AD00221B9
:10F0F00001704460E86831180098487000F02EF8FC
:10F100000020F8BD0420F8BD38B58B4CA06800285D
:10F1100015D0FFF759FFC500E0686946281800F0D0
:10F12000F6F800280DD003210170091F4160E06846
:10F1300029180098487000F011F8002038BD082008
:10F1400038BD042038BD7D49496801600020704702
:10F15000401A0002000A1060002070470120784920
:10F1600000050860704710B5734900238A78CC7891
:10F17000A24212D0521CD2B28A70022A00D18B70E5
:10F180008A786D4B92001C339A58026048691018B7
:10F190000002000A4861012010BD0360002010BD7C
:10F1A000F8B5654801690091457833E06248E900A7
:10F1B000C0680E1834782AE0182060437168641C17
:10F1C0000818B178E4B2A14200D1002401780229E4
:10F1D00002D003291BD113E0574A406824219268CA
:10F1E00041438F18397D002911D0FFF761FD0020C0
:10F1F00038750CE024277843C0180275006A03E0D4
:10F200004D4900228B680869471CF3D1086170786A
:10F21000A042D1D128466D1EEDB20028C6D1464885
:10F2200001690098814201D00120F8BD0020F8BD9D
:10F23000F7B5414C0025A76823691EE024215943F6
:10F24000C9194E68864202D9301A486017E0801BFF
:10F25000751900264E600E750E699C460B6AB646FF
:10F26000002E0AD0019E76193602360A8E60764646
:10F27000CE6016680E6261461160591CDED12361B2
:10F28000FEBDF8B52C4801694A1C3DD024225143EB
:10F29000826889184E6829494C6847690079E11BE2
:10F2A0000D022D0AED1C002815D10120254A00046D
:10F2B0005060244A403A5060214940008031086043
:10F2C000214908602149012008602F20FCF746FFF2
:10F2D000194901200871B54200D23546E8190002EB
:10F2E0001649000A4031086014494968001B091B8F
:10F2F0000902090A0002000AC91C814203D901203F
:10F300000F4940040860F8BDFFF78AFCF8BD427859
:10F310008378521C934200D100220378934201D19A
:10F32000002070470A60416840781822504308184E
:10F330007047000000E400E0A82C00200015014008
:10F3400000E200E04013014000E100E00010014055
:10F3500010B50446082904D0002211461046FFF7D4
:10F3600073FB21686068884710BD1CB5019100904F
:10F37000024A08216846FFF787FB1CBD51F30300D2
:10F3800010B50446002A02D01088002210E00A4876
:10F39000FBE7030A00020343A05C584003061B0F6F
:10F3A00043401803584083B21806C00C5840521C02
:10F3B0008A42EED310BD0000FFFF000070B50025AB
:10F3C0000C290ED304464318008941000919581A24
:10F3D0000A38C2B21E48022A027002D30A318B4296
:10F3E00001D2092070BD1B4800F09EF91A491B4844
:10F3F0000A88824202D02388934217D149888142E9
:10F4000002D06088884211D1144A0323521E2089F9
:10F410001B03A8420AD9690009194989914203D0FE
:10F420009E896D1CB142F4D1002070BD0B2070BDCF
:10F4300010B50022FFF7A4FF064A5178127809029E
:10F440001143884201D00B2010BD002010BD0000E8
:10F45000CC2C0020E032002080100010FFFF0000C4
:10F460005648002101705748554A02608160C160CA
:10F4700001610822416142608161084670470020B5
:10F480007047002805D04D490A78002A03D004208F
:10F4900070470E20704701220A704849491C0160DC
:10F4A00000207047454900200870704710B50029BA
:10F4B0001DD000220A60434A5368002B1BD020282D
:10F4C00017D85B1E5360D0682423401CD06010699D
:10F4D00014684343E3180B60012383409169401C87
:10F4E00019434007400F91611061002010BD0E20AC
:10F4F00010BD0C2010BD042010BDF0B5314A0646E9
:10F50000916800292AD057691020791A4907490FB4
:10F5100014680B4624254D436519B54206D10124D4
:10F5200095698C4065400020956104E0491C4907BD
:10F53000490F8F42EED1491C4E07760F9569012184
:10F540000C469C4025420AD19368002B07D05B1ED5
:10F55000936053685B1C53603346F1E70420F0BDB1
:10F56000184A2423117C1268491E4907490F594340
:10F57000203150500020704770B500281AD0002963
:10F5800018D0104AD368002B16D05B1ED360936846
:10F5900024265B1C9360536915681C467343EE1860
:10F5A00020330660E858641C08606007400F506113
:10F5B000002070BD0E2070BD042070BDCD2C002039
:10F5C000EC3200200C34002010B508461146FCF740
:10F5D0001BFE10BDF8B53D4C2078002837D02069BF
:10F5E000002807D00026E068002805D00025002E5E
:10F5F00004D013E00126F6E70125F8E7684651DF5D
:10F60000052806D0002806D000221146FFF71CFA74
:10F6100004E0012602E0216900988847002D12D1FC
:10F62000608869460880A06861DF052806D0002848
:10F6300006D000221146FFF707FA04E0012502E098
:10F64000E168A0688847002ED8D0002DCFD0F8BD43
:10F6500070B5002901D08C0701D0072070BD1B4C6C
:10F660000125A16062801A49636010DF0028F5D18E
:10F67000257016202EDF70BD11DF002801D001217A
:10F6800000E00021114A11707047002803D00F4993
:10F69000C860002070470E207047002803D00B4937
:10F6A0000861002070470E20704710B50748406879
:10F6B000002807D08047002803D000221146FFF71A
:10F6C000C3F910BDFFF786FF10BD0000D42C002049
:10F6D000C9F5030010B5002904D0002211461046D8
:10F6E000FFF7B2F9FFF776FF10BD10B50021024A0F
:10F6F0000846FFF7C9F910BDD5F6030030B50B4633
:10F70000014600202022012409E00D46D5409D42FB
:10F7100005D31D469540491B254695404019154681
:10F72000521E002DF1DC30BD03460B439B0703D076
:10F7300009E008C9121F08C0042AFAD203E00B78B6
:10F740000370401C491C521EF9D27047D2B201E02E
:10F750000270401C491EFBD270470022F6E710B52C
:10F7600013460A4604461946FFF7F0FF204610BD2F
:10F7700030B504460020034600E05B1C934203D2F0
:10F78000E05CCD5C401BF8D030BD0321001D401E65
:10F79000037812021A43491EF9D51046704700003B
:10F7A000064C0125064E05E0E36807CC2B430C3CD4
:10F7B00098471034B442F7D3FCF786FC70F8030086
:10F7C00090F8030030B47446641E2578641CAB4284
:10F7D00000D21D46635D5B00E31830BC184702E0B1
:10F7E00008C8121F08C1002AFAD1704770470020CC
:10F7F00001E001C1121F002AFBD170470200000086
:10F8000000000000000000000000000023D1BCEA5E
:10F810005F782315DEEF12120000000002000000E6
:10F8200000000000000000000000000000000000D8
:10F8300004000000000000000000000000000000C4
:10F84000000000009DDB030000000000000000003D
:10F8500003000000000000000000000005000000A0
:10F860000000000000000000000000000000000098
:10F8700090F80300002C0020E8000000DEF70300F1
:10F8800078F90300E82C0020400F0000EEF7030099
:10F890000024F40000000000000000000000000050
:10F8A0000000000000000000000000000000000058
:10F8B0000000000000000000000000000000000048
:10F8C0000000000000000000000000000000000038
:10F8D0000000000000000000000000000000000028
:10F8E0000000000000000000000000000000000018
:10F8F0000000000000000000000000000000000008
:10F9000000000000000000000000FFFF00000000F9
:10F9100032000000000000000000000000000000B5
:10F9200000000000000000000000000000000000D7
:10F9300000000000000000000000000000000000C7
:10F9400000000000000000000000000000000000B7
:10F9500000000000000000000000000000000000A7
:10F960000000000000000000000000000000000097
:08F9700000000000000000008F
:020000041000EA
:0410140000C0030015
:040000050003C0C173
:00000001FF
